:020000040800F2
:1000000000400020090900085D0800086508000894
:1000100000000000000000000000000000000000E0
:100020000000000000000000000000006D08000853
:1000300000000000000000007708000881080008A8
:100040005909000859090008590900085909000808
:1000500059090008590900085909000859090008F8
:1000600059090008590900085909000859090008E8
:1000700059090008590900085909000859090008D8
:1000800059090008590900085909000859090008C8
:1000900059090008590900085909000859090008B8
:1000A00059090008590900085909000859090008A8
:1000B0005909000859090008590900085909000898
:1000C00010B5064C2378002B07D1054B002B02D02E
:1000D000044800E000BF0123237010BD5C00002035
:1000E00000000000CC330008044B10B5002B03D0F7
:1000F0000349044800E000BF10BDC04600000000F6
:1001000060000020CC3300080023C25C0133002AC9
:10011000FBD1581E7047000003B4714649084000E7
:100120004900095E49008E4403BC70470022430821
:100130008B4274D303098B425FD3030A8B4244D3AF
:10014000030B8B4228D3030C8B420DD3FF220902F1
:1001500012BA030C8B4202D31212090265D0030BB0
:100160008B4219D300E0090AC30B8B4201D3CB03A6
:10017000C01A5241830B8B4201D38B03C01A5241E8
:10018000430B8B4201D34B03C01A5241030B8B42EA
:1001900001D30B03C01A5241C30A8B4201D3CB02D5
:1001A000C01A5241830A8B4201D38B02C01A5241BA
:1001B000430A8B4201D34B02C01A5241030A8B42BD
:1001C00001D30B02C01A5241CDD2C3098B4201D3D5
:1001D000CB01C01A524183098B4201D38B01C01A53
:1001E000524143098B4201D34B01C01A52410309CA
:1001F0008B4201D30B01C01A5241C3088B4201D379
:10020000CB00C01A524183088B4201D38B00C01A25
:10021000524143088B4201D34B00C01A5241411A4C
:1002200000D20146524110467047FFE701B5002059
:1002300000F006F802BDC0460029F7D076E7704707
:100240007047C0460FB480B59AB000AF7423FB1856
:100250003B603A68396F3B1D180002F02DFC3B1DD6
:100260001800FFF751FF03009AB201235B42391DCA
:10027000044801F0B3FFC046BD461AB080BC08BCBC
:1002800004B018476401002080B500AF00F066FBA1
:1002900000F018F800F062F900F030F900F072F8A0
:1002A00000F0FCF800F0D6F8054B01211800FFF72C
:1002B000C9FFFA235B00180000F0B4FBC046F3E767
:1002C000E433000890B599B000AF2C243B19180016
:1002D00034231A00002102F0FBFB1C23FB1818003A
:1002E00010231A00002102F0F3FB3B0018001C232E
:1002F0001A00002102F0ECFB21007B1812221A6088
:100300007B180122DA607B1801225A617B181022C7
:100310001A617B1810229A617B1800225A627B189E
:10032000180001F017F9031E01D000F081F91C211B
:100330007B1807221A607B1800225A607B18002263
:100340009A607B180022DA607B180021180001F007
:1003500087FC031E01D000F06BF93B0003221A60FA
:100360003B0000229A603B000022DA603B0018004C
:1003700001F0E2FD031E01D000F05AF9C046BD466F
:1003800019B090BD80B584B000AF3B1D18000C23A0
:100390001A00002102F09CFB2C4B2D4A1A602B4BBB
:1003A00000225A60294B00229A60284B0022DA6012
:1003B000264B01221A61254B04225A61234B00224D
:1003C0001A76224B00225A76204B01229A761F4B36
:1003D0000022DA761D4BC222FF32DA611B4B00226B
:1003E0001A621A4B242200219954184B01229A6256
:1003F000164B180000F03AFB031E01D000F018F96C
:100400003B1D01221A603B1D802252015A603B1D98
:10041000802252059A603A1D0C4B1100180000F022
:1004200065FC031E01D000F003F93B1D11221A6088
:100430003A1D064B1100180000F058FC031E01D0B5
:1004400000F0F6F8C046BD4604B080BD780000203C
:100450000024014080B500AF0E4B0F4A1A600D4BCF
:1004600000221A710B4B00225A710A4B00225A616A
:10047000084B00229A61074B01221A62054B1800B3
:1004800000F0F6FD031E01D000F0D2F8C046BD46D4
:1004900080BDC046B80000200030024080B500AFEB
:1004A000144B154A1A60134BE12252025A60114B49
:1004B00000229A600F4B0022DA600E4B00221A6174
:1004C0000C4B0C225A610B4B00229A61094B002203
:1004D000DA61084B00221A62064B00225A62054B71
:1004E000180001F027FE031E01D000F0A1F8C0465D
:1004F000BD4680BDDC0000200038014080B500AF63
:10050000144B154A1A60134BE12252025A60114BE8
:1005100000229A600F4B0022DA600E4B00221A6113
:100520000C4B0C225A610B4B00229A61094B0022A2
:10053000DA61084B00221A62064B00225A62054B10
:10054000180001F0F7FD031E01D000F071F8C0465D
:10055000BD4680BD640100200044004090B589B0D4
:1005600000AF0C243B19180014231A00002102F0DC
:10057000AFFA2D4B5A692C4B802109030A435A616B
:10058000294B5A6980231B031340BB60BB68264B71
:100590005A69254B8021C9030A435A61224B5A6983
:1005A0008023DB0313407B607B681F4B5A691E4B23
:1005B000802189020A435A611B4B5A6980239B029E
:1005C00013403B603B689023DB050022202118008C
:1005D00000F0A2FF3B19802292011A603B1984228D
:1005E00092035A603B1900229A603B190F4A190086
:1005F000100000F019FE21007B1820221A607B18E1
:1006000001225A607B1800229A607B180022DA606F
:100610007A189023DB051100180000F005FEC04693
:10062000BD4609B090BDC046001002400008004819
:1006300080B500AF72B6C046C046FDE780B582B057
:1006400000AF0F4B9A690E4B01210A439A610C4B84
:100650009B69012213407B607B68094BDA69084B78
:10066000802149050A43DA61054BDA6980235B057D
:1006700013403B603B68C046BD4602B080BDC046EB
:100680000010024090B58BB000AF786014243B1985
:10069000180014231A00002102F01AFA7B681B6864
:1006A000194A93422BD1194B9A69184B8021890022
:1006B0000A439A61154B9A6980239B0013403B6162
:1006C0003B69124B5A69114B802189020A435A61D6
:1006D0000E4B5A6980239B021340FB60FB683B1959
:1006E00002221A603B1903225A603B1900229A60C9
:1006F0003A199023DB051100180000F095FDC04663
:10070000BD460BB090BDC046002401400010024021
:1007100080B584B000AF78607B681B68094A93425B
:100720000BD1094B5A69084B40210A435A61064BC9
:100730005B6940221340FB60FB68C046BD4604B0C5
:1007400080BDC046003002400010024090B58DB020
:1007500000AF78601C243B19180014231A000021F4
:1007600002F0B6F97B681B68394A934234D1394BA1
:100770009A69384B8021C9010A439A61354B9A69BD
:100780008023DB011340BB61BB69324B5A69314B9B
:10079000802189020A435A612E4B5A6980239B02A9
:1007A00013407B617B693B19C022D2001A60210093
:1007B0007B1802225A607B1800229A607B18032261
:1007C000DA607B1801221A617A189023DB05110088
:1007D000180000F029FD37E07B681B681E4A934231
:1007E00032D11C4BDA691B4B802189020A43DA6142
:1007F000184BDA6980239B0213403B613B69154B20
:100800005A69144B802189020A435A61114B5A6973
:1008100080239B021340FB60FB681C217B180C2289
:100820001A607B1802225A607B1800229A607B189B
:100830000022DA607B1801221A617A189023DB0506
:100840001100180000F0F0FCC046BD460DB090BD90
:1008500000380140001002400044004080B500AF65
:10086000C046FDE780B500AFC046FDE780B500AFEC
:10087000C046BD4680BD80B500AFC046BD4680BD08
:1008800080B500AF00F0B2F8C046BD4680BD0000A4
:1008900080B586B000AF7860144A154BD31A7B61DF
:1008A0007B693B61134B1B68002B02D1114B124A31
:1008B0001A60104B1A687B68D3183A699A4207D2BB
:1008C00002F00EF903000C221A6001235B4209E0DA
:1008D000084B1B68FB60074B1A687B68D218054BF6
:1008E0001A60FB681800BD4606B080BD00400020BD
:1008F00000040000EC0100204003002080B500AFA0
:10090000C046BD4680BD00000D488546FFF7F6FF96
:100910000C480D490D4A002302E0D458C45004335A
:10092000C4188C42F9D30A4A0A4C002301E0136030
:100930000432A242FBD302F0D9F8FFF7A5FCFEE790
:1009400000400020000000205C0000206834000807
:100950005C0000203C030020FEE7000080B500AFF3
:10096000074B1A68064B10210A431A60002000F05A
:1009700009F8FFF763FE00231800BD4680BDC0469E
:100980000020024090B583B000AF7860144B1C6823
:10099000144B1B781900FA239800FFF7C7FB0300DC
:1009A00019002000FFF7C2FB0300180000F053FB02
:1009B000031E01D001230FE07B68032B0BD879685D
:1009C00001235B420022180000F030FB064B7A68DE
:1009D0001A60002300E001231800BD4603B090BD5B
:1009E00000000020080000200400002080B500AFB7
:1009F000054B1B781A00054B1B68D218034B1A6075
:100A0000C046BD4680BDC04608000020F001002061
:100A100080B500AF024B1B681800BD4680BDC046C4
:100A2000F001002080B584B000AF7860FFF7F0FFE0
:100A30000300BB607B68FB60FB68013305D00A4B99
:100A40001B781A00FB689B18FB60C046FFF7E0FFAD
:100A50000200BB68D31AFA689A42F7D8C046C0466B
:100A6000BD4604B080BDC0460800002080B584B0FB
:100A700000AF78600F23FB1800221A700023BB60C0
:100A80007B68002B01D1012325E17B689B6B002B48
:100A90000AD17B680022DA637B68342200219954F2
:100AA0007B681800FFF7EEFD7B689B6B10221340FC
:100AB00000D003E10F23FB181B78002B00D0FDE0D2
:100AC0007B681B689B680422134000D0F6E07B68BB
:100AD0009B6B834A134002221A437B689A637B68AC
:100AE0001B689B6803221340012B12D17B681B6893
:100AF0001B6801221340012B09D07B681B68DA6850
:100B000080231B021A4080231B029A4201D1012339
:100B100000E00023002B16D17B681B68DB681822DD
:100B2000934319007B689A687B681B680A43DA6004
:100B30007B681B681B699B0099087B685A687B6807
:100B40001B680A431A617B681B68DA687B681B684C
:100B500064490A40DA607B681B7E9A037B685B7E8F
:100B6000DB031A437B689B7E5B031A437B689B6AAB
:100B7000012B02D080235B0100E000231A437B6835
:100B8000DB681A437B681B69022B01D1042300E058
:100B900000231A437B6824215B5C5B001343BA6823
:100BA0001343BB607B68DB7E012B15D17B689B7E8A
:100BB000002B05D1BB68802252021343BB600BE0BF
:100BC0007B689B6B20221A437B689A637B68DB6B94
:100BD00001221A437B68DA637B68DA69C223FF3338
:100BE0009A4207D07B68DA697B681B6A1343BA684C
:100BF0001343BB607B681B68D9687B681B68BA6855
:100C00000A43DA607B68DA6A80235B059A421BD06C
:100C10007B68DB6A012B17D07B68DB6A022B13D061
:100C20007B68DB6A032B0FD07B68DB6A042B0BD05D
:100C30007B68DB6A052B07D07B68DB6A062B03D059
:100C40007B68DB6A072B12D17B681B685A697B685B
:100C50001B6807218A435A617B681B6859697B6856
:100C6000DB6A07221A407B681B680A435A617B686B
:100C70001B68DB681C4A1340BA689A420BD17B6838
:100C80000022DA637B689B6B0322934301221A43A1
:100C90007B689A631CE07B689B6B12229343102253
:100CA0001A437B689A637B68DB6B01221A437B687B
:100CB000DA630F23FB1801221A7009E07B689B6B33
:100CC00010221A437B689A630F23FB1801221A70C3
:100CD0000F23FB181B781800BD4604B080BDC0462A
:100CE000FDFEFFFF1902FEFFE7FF3F8380B584B0E2
:100CF00000AF786039600F23FB1800221A700023C0
:100D0000BB607B68DA6A80235B059A4211D07B68FE
:100D1000DB6A012B0DD07B68DB6A022B09D07B6874
:100D2000DB6A032B05D07B68DB6A042B01D07B6870
:100D3000DB6A7B6834229B5C012B01D10223D0E06B
:100D40007B683422012199547B681B689B680422CC
:100D5000134000D0B4E03B685B68644A934200D122
:100D600082E07B681B68996A3B681B6801229A4095
:100D70007B681B680A439A627B68DA6A80235B059A
:100D80009A4237D07B68DB6A012B33D07B68DB6A01
:100D9000022B2FD07B68DB6A032B2BD07B68DB6AAE
:100DA000042B27D07B68DB6A052B23D07B68DB6AAA
:100DB000062B1FD07B68DB6A072B1BD03B689A6829
:100DC0007B681B685B6907210B409A4212D07B68E5
:100DD0001B685A697B681B6807218A435A617B68D4
:100DE0001B6859693B689B6807221A407B681B682F
:100DF0000A435A613B681B68102B07D03B681B688D
:100E0000112B03D03B681B68122B63D1384B196838
:100E10003B681B68102B09D03B681B68112B02D163
:100E20008023DB0304E080235B0401E080231B04B8
:100E30002F4A0B4313603B681B68102B4AD12D4B84
:100E40001B682D491800FFF771F903001A00130001
:100E50009B009B185B00BB6002E0BB68013BBB6072
:100E6000BB68002BF9D135E07B681B689A6A3B6848
:100E70001B68012199400B00D9437B681B680A401D
:100E80009A623B681B68102B07D03B681B68112BCC
:100E900003D03B681B68122B1CD1154B19683B68AB
:100EA0001B68102B07D03B681B68112B01D1134B1B
:100EB00002E0134B00E0134B0D4A0B40136009E0B6
:100EC0007B689B6B20221A437B689A630F23FB1875
:100ED00001221A707B683422002199540F23FB18D9
:100EE0001B781800BD4604B080BDC046011000004C
:100EF000082701400000002040420F00FFFFBFFF15
:100F0000FFFFFFFEFFFF7FFF90B583B000AF020041
:100F10003960FB1D1A70FB1D1B787F2B28D82F4AC8
:100F2000FB1D1B785BB29B08C0339B009B58FA1DCE
:100F30001278110003220A40D200FF2191400A00DA
:100F4000D2431A4011003B689B01FF221A40FB1D4F
:100F50001B78180003230340DB009A401F48FB1D49
:100F60001B785BB29B080A43C0339B001A5031E0E8
:100F70001B4AFB1D1B7819000F230B40083B9B08E5
:100F800006339B00D31804331B68FA1D1278110036
:100F900003220A40D200FF2191400A00D2431A40A6
:100FA00011003B689B01FF221A40FB1D1B781800B3
:100FB00003230340DB009A400948FB1D1B781C00FB
:100FC0000F232340083B9B080A4306339B00C318AA
:100FD00004331A60C046BD4603B090BD00E100E096
:100FE00000ED00E080B582B000AF78607B685A1EEB
:100FF00080235B049A4201D3012310E00A4B7A68F4
:10100000013A5A6001235B4203211800FFF77CFF7D
:10101000054B00229A60044B07221A600023180037
:10102000BD4602B080BDC04610E000E080B584B08F
:1010300000AFB9607A600F217B18021C1A70BA6881
:101040007B181B785BB211001800FFF75DFFC046EC
:10105000BD4604B080BD80B582B000AF78607B68CB
:101060001800FFF7BFFF03001800BD4602B080BDA7
:1010700080B582B000AF78607B68002B01D101237E
:1010800056E07B685B7FDBB2002B06D17B680022D9
:101090001A777B681800FFF73BFB7B6802225A77C0
:1010A0007B681B79002B0CD17B681B68224A5A6134
:1010B0007B681B689A687B681B6818218A439A6062
:1010C0000BE07B6899687B68DA687B68180000F041
:1010D00035F8031E01D001232AE07B685B79002BE1
:1010E00005D17B681B68012252421A6104E07B68CB
:1010F0001B687A6812691A617B681B689B686022AA
:10110000934319007B685A697B681B680A439A609D
:101110007B681B689B688022934319007B689A69EF
:101120007B681B680A439A607B6801225A77002318
:101130001800BD4602B080BDB71DC10480B586B0A1
:1011400000AFF860B9607A6017217B1800221A702E
:101150001F233B61BB680122134003D17B1801228E
:101160001A7045E0C0463B695A1E3A61002B08D010
:101170003B691F221340BA68DA4013000122134072
:10118000F1D07B68182B0FD07B68182B24D87B6894
:10119000102B11D07B68102B1ED87B68002B20D021
:1011A0007B68082B10D017E03B69062B1BD917234F
:1011B000FB1801221A7016E03B69072B15D917237B
:1011C000FB1801221A7010E03B690F2B0FD917236F
:1011D000FB1801221A700AE01723FB1801221A706B
:1011E00006E0C04604E0C04602E0C04600E0C0465B
:1011F0001723FB181B78002B0ED1FB681B68BA68FD
:101200005A61FB681B689B68182293431900FB68AE
:101210001B687A680A439A601723FB181B7818002A
:10122000BD4606B080BD000080B586B000AF7860D6
:10123000396000237B6155E13B681B6801217A69B5
:1012400091400A001340FB60FB68002B00D146E18F
:101250003B685B6803221340012B05D03B685B6849
:1012600003221340022B30D17B689B683B617B6972
:101270005B0003229A401300DA433B6913403B6151
:101280003B68DA687B695B009A4013003A69134354
:101290003B617B683A699A607B685B683B610122CD
:1012A0007B699A401300DA433B6913403B613B681A
:1012B0005B681B0901221A407B699A4013003A6956
:1012C00013433B617B683A695A603B685B68032261
:1012D0001340032B17D07B68DB683B617B695B00A5
:1012E00003229A401300DA433B6913403B613B6899
:1012F0009A687B695B009A4013003A6913433B612B
:101300007B683A69DA603B685B6803221340022B12
:1013100023D17B69DA087B6808329200D3583B619D
:101320007B69072213409B000F229A401300DA4387
:101330003B6913403B613B681A697B6907210B409D
:101340009B009A4013003A6913433B617B69DA08BA
:101350007B68083292003969D1507B681B683B6119
:101360007B695B0003229A401300DA433B69134018
:101370003B613B685B6803221A407B695B009A40D3
:1013800013003A6913433B617B683A691A603B6812
:101390005A68C0239B02134000D1A0E0574B9A69C2
:1013A000564B01210A439A61544B9B690122134019
:1013B000BB60BB68524A7B699B0802339B009B5809
:1013C0003B617B69032213409B000F229A4013006C
:1013D000DA433B6913403B617A689023DB059A420C
:1013E00019D07B68474A934213D07B68464A9342A0
:1013F0000DD07B68454A934207D07B68444A9342AC
:1014000001D1042308E0052306E0032304E00223BE
:1014100002E0012300E000237A6903210A409200E0
:1014200093403A6913433B6135497B699B0802331A
:101430009B003A695A50374B9B683B61FB68DA4323
:101440003B6913403B613B685A6880235B03134050
:1014500003D03A69FB6813433B612E4B3A699A60AB
:101460002C4BDB683B61FB68DA433B6913403B6113
:101470003B685A6880239B03134003D03A69FB689A
:1014800013433B61234B3A69DA60224B5B683B6153
:10149000FB68DA433B6913403B613B685A68802331
:1014A0009B02134003D03A69FB6813433B61194B1D
:1014B0003A695A60174B1B683B61FB68DA433B692A
:1014C00013403B613B685A6880235B02134003D0A2
:1014D0003A69FB6813433B610E4B3A691A607B69BA
:1014E00001337B613B681A687B69DA40131E00D0C8
:1014F000A2E6C046C046BD4606B080BD0010024010
:10150000000001400004004800080048000C0048AA
:10151000001000480004014080B582B000AF786040
:1015200008001100BB1C021C1A807B1C0A1C1A70CC
:101530007B1C1B78002B04D0BB1C1A887B689A612B
:1015400003E0BB1C1A887B689A62C046BD4602B0A5
:1015500080BD000080B588B000AF78607B68002B4C
:1015600002D1012300F076FB7B681B680122134047
:1015700000D18EE0C54B5B680C221340042B0ED0CB
:10158000C24B5B680C221340082B17D1BF4B5A6823
:10159000C0235B021A4080235B029A420ED1BB4BF0
:1015A0001A6880239B02134000D171E07B685B685E
:1015B000002B00D06CE0012300F04CFB7B685B68E3
:1015C000012B07D1B14B1A68B04B802149020A4365
:1015D0001A602FE07B685B68002B0CD1AB4B1A685C
:1015E000AA4BAB490A401A60A84B1A68A74BA949F5
:1015F0000A401A601EE07B685B68052B0ED1A34B86
:101600001A68A24B8021C9020A431A609F4B1A68CC
:101610009E4B802149020A431A600BE09B4B1A68DB
:101620009A4B9B490A401A60984B1A68974B994904
:101630000A401A607B685B68002B14D0FFF7E8F95A
:101640000300BB6108E0FFF7E3F90200BB69D31AAE
:10165000642B01D90323FDE28C4B1A6880239B0283
:101660001340F0D015E0FFF7D3F90300BB6108E0A9
:10167000FFF7CEF90200BB69D31A642B01D903230B
:10168000E8E2824B1A6880239B021340F0D100E00D
:10169000C0467B681B680222134000D16CE07B4B84
:1016A0005B680C2213400ED0784B5B680C22134011
:1016B000082B1FD1754B5A68C0235B021A40802348
:1016C0001B029A4216D1714B1B680222134005D0AF
:1016D0007B68DB68012B01D00123BBE26B4B1B68ED
:1016E000F822934319007B681B69DA00674B0A43B1
:1016F0001A6041E07B68DB68002B24D0634B1A68DA
:10170000624B01210A431A60FFF782F90300BB61B3
:1017100008E0FFF77DF90200BB69D31A022B01D95B
:10172000032397E2594B1B6802221340F1D0574B19
:101730001B68F822934319007B681B69DA00534B3E
:101740000A431A6018E0514B1A68504B01218A4332
:101750001A60FFF75DF90300BB6108E0FFF758F975
:101760000200BB69D31A022B01D9032372E2474B53
:101770001B6802221340F1D17B681B6808221340CA
:1017800036D07B68DB69002B19D0404B5A6A3F4B3F
:1017900001210A435A62FFF73BF90300BB6108E0ED
:1017A000FFF736F90200BB69D31A022B01D90323D4
:1017B00050E2364B5B6A02221340F1D018E0334B03
:1017C0005A6A324B01218A435A62FFF721F903001A
:1017D000BB6108E0FFF71CF90200BB69D31A022BBA
:1017E00001D9032336E2294B5B6A02221340F1D16F
:1017F0007B681B680422134000D1B5E01F203B1812
:1018000000221A70214BDA6980235B05134010D146
:101810001E4BDA691D4B802149050A43DA611B4BD7
:10182000DA6980235B051340FB60FB683B180122EB
:101830001A70194B1A6880235B0013401AD1164B9B
:101840001A68154B802149000A431A60FFF7E0F837
:101850000300BB6108E0FFF7DBF80200BB69D31AA5
:10186000642B01D90323F5E10B4B1A6880235B003D
:101870001340F0D07B689B68012B0FD1034B1A6A91
:10188000024B01210A431A6236E0C04600100240B2
:10189000FFFFFEFFFFFFFBFF007000407B689B68BF
:1018A000002B0CD1CA4B1A6AC94B01218A431A6218
:1018B000C74B1A6AC64B04218A431A621CE07B6834
:1018C0009B68052B0CD1C24B1A6AC14B04210A43F9
:1018D0001A62BF4B1A6ABE4B01210A431A620BE01F
:1018E000BB4B1A6ABA4B01218A431A62B84B1A6A77
:1018F000B74B04218A431A627B689B68002B14D083
:10190000FFF786F80300BB6109E0FFF781F80200EA
:10191000BB69D31AAF4A934201D903239AE1AC4B76
:101920001B6A02221340F0D013E0FFF771F80300A6
:10193000BB6109E0FFF76CF80200BB69D31AA54A46
:10194000934201D9032385E1A14B1B6A0222134074
:10195000F0D11F23FB181B78012B05D19C4BDA69B2
:101960009B4B9D490A40DA617B681B68102213403B
:1019700063D07B685B69012B2AD1954B5A6B944BE2
:1019800004210A435A63924B5A6B914B01210A433B
:101990005A63FFF73DF80300BB6108E0FFF738F832
:1019A0000200BB69D31A022B01D9032352E1884BF1
:1019B0005B6B02221340F1D0854B5B6BF8229343A3
:1019C00019007B689B69DA00814B0A435A6334E053
:1019D0007B685B69053311D17D4B5A6B7C4B0421CD
:1019E0008A435A637A4B5B6BF822934319007B68F6
:1019F0009B69DA00764B0A435A631EE0744B5A6BBC
:101A0000734B04210A435A63714B5A6B704B01218B
:101A10008A435A63FEF7FCFF0300BB6108E0FEF750
:101A2000F7FF0200BB69D31A022B01D9032311E18E
:101A3000674B5B6B02221340F1D17B681B6820224D
:101A400013405CD0624B5B680C2213400C2B0ED011
:101A50005F4B5B680C221340082B14D15C4B5A6817
:101A6000C0235B021A40C0235B029A420BD1584B41
:101A70005A6B80239B02134040D07B681B6A012B6A
:101A80003CD00123E6E07B681B6A002B1BD0504B47
:101A90005A6B4F4B802149020A435A63FEF7B8FF45
:101AA0000300BB6108E0FEF7B3FF0200BB69D31A75
:101AB000022B01D90323CDE0454B5A6B80239B02B7
:101AC0001340F0D01BE0424B5A6B414B43490A4054
:101AD0005A63FEF79DFF0300BB6108E0FEF798FF25
:101AE0000200BB69D31A022B01D90323B2E0384BA1
:101AF0005A6B80239B021340F0D100E0C0467B6804
:101B00005B6A002B00D1A4E0314B5B680C221340D0
:101B1000082B00D178E07B685B6A022B4CD12C4B00
:101B20001A682B4B2E490A401A60FEF771FF03001A
:101B3000BB6108E0FEF76CFF0200BB69D31A022B01
:101B400001D9032386E0224B1A6880239B041340AB
:101B5000F0D11F4BDB6A0F22934319007B681A6B8D
:101B60001B4B0A43DA621A4B5B681E4A134019008A
:101B70007B68DA6A7B689B6A1A43154B0A435A6092
:101B8000134B1A68124B802149040A431A60FEF76E
:101B90003FFF0300BB6108E0FEF73AFF0200BB69AC
:101BA000D31A022B01D9032354E0094B1A6880236E
:101BB0009B041340F0D04CE0054B1A68044B0849D5
:101BC0000A401A60FEF724FF0300BB6115E0C0461F
:101BD0000010024088130000FFFFFFEFFFFFFEFF31
:101BE000FFFFFFFEFF7FC2FFFEF712FF0200BB698F
:101BF000D31A022B01D903232CE0184B1A68802337
:101C00009B041340F0D124E07B685B6A012B01D177
:101C100001231FE0114B5B687B61104BDB6A3B616A
:101C20007A69C0235B021A407B689B6A9A420ED194
:101C30003B690F221A407B681B6B9A4207D17A6975
:101C4000F0239B031A407B68DB6A9A4201D0012390
:101C500000E000231800BD4608B080BD001002401F
:101C600080B584B000AF786039607B68002B01D10B
:101C70000123BFE0614B1B68012213403A689A427E
:101C800011D95E4B1B680122934319005B4B3A68E4
:101C90000A431A60594B1B68012213403A689A4262
:101CA00001D00123A6E07B681B680222134015D0F7
:101CB0007B681B680422134006D0514B5A68504B76
:101CC000E021C9000A435A604D4B5B68F022934300
:101CD00019007B689A684A4B0A435A607B681B6804
:101CE000012213404CD07B685B68012B07D1444B29
:101CF0001A6880239B02134020D101237AE07B687D
:101D00005B68022B07D13E4B1A6880239B0413406B
:101D100014D101236EE07B685B68032B07D1384B3D
:101D20005A6B80239B02134008D1012362E0344B9D
:101D30001B680222134001D101235BE0304B5B683A
:101D40000322934319007B685A682D4B0A435A605B
:101D5000FEF75EFE0300FB6009E0FEF759FE02009D
:101D6000FB68D31A274A934201D9032342E0244B4C
:101D70005B680C221A407B685B689B009A42ECD13E
:101D80001E4B1B68012213403A689A4211D21B4B2A
:101D90001B68012293431900184B3A680A431A60E2
:101DA000164B1B68012213403A689A4201D0012366
:101DB00020E07B681B680422134009D0104B5B684D
:101DC000114A134019007B68DA680D4B0A435A60C8
:101DD00000F020F801000A4B5B681B090F2213403A
:101DE0000A4AD35C0A00DA40094B1A600020FEF769
:101DF000C9FD00231800BD4604B080BD002002408C
:101E00000010024088130000FFF8FFFFF4330008C1
:101E10000000002080B586B000AF0023FB600023E7
:101E2000BB6000237B6100237B6000233B612D4B63
:101E30005B68FB60FB680C2213400C2B46D048D833
:101E4000042B02D0082B03D043E0274B3B6143E037
:101E5000FB689B0C0F221340244AD35C7B60214B10
:101E6000DB6A0F221340224AD35CBB60FA68C023AE
:101E70005B021A4080235B029A4209D1B9681A4872
:101E8000FEF754F903001A007B6853437B611AE0A4
:101E9000FA68C0235B021A40C0235B029A4209D150
:101EA000B9681448FEF742F903001A007B685343EF
:101EB0007B6108E0B9680C48FEF738F903001A00A6
:101EC0007B6853437B617B693B6105E0094B3B6168
:101ED00002E0054B3B61C0463B691800BD4606B0B9
:101EE00080BDC0460010024000127A000C34000889
:101EF0001C340008006CDC0280B500AF024B1B688C
:101F00001800BD4680BDC0460000002080B500AF6F
:101F1000FFF7F2FF0100064B5B681B0A0722134024
:101F2000044AD35CD9400B001800BD4680BDC046B2
:101F3000001002400434000880B586B000AF78601D
:101F400000233B610023FB607B681A6880235B02EF
:101F5000134000D18EE017203B1800221A706E4B00
:101F6000DA6980235B05134010D16B4BDA696A4B49
:101F7000802149050A43DA61674BDA6980235B05F2
:101F80001340BB60BB683B1801221A70634B1A6890
:101F900080235B0013401AD1604B1A685F4B80218D
:101FA00049000A431A60FEF733FD03003B6108E075
:101FB000FEF72EFD02003B69D31A642B01D90323DF
:101FC000A6E0564B1A6880235B001340F0D0524BBA
:101FD0001A6AC0239B001340FB60FB68002B34D0BF
:101FE0007B685A68C0239B001340FA689A422CD041
:101FF000494B1B6A4A4A1340FB60474B1A6A464BDF
:10200000802149020A431A62434B1A6A424B4549EE
:102010000A401A62404BFA681A62FB6801221340B8
:1020200013D0FEF7F5FC03003B6109E0FEF7F0FC7E
:1020300002003B69D31A3C4A934201D9032367E06B
:10204000354B1B6A02221340F0D0334B1B6A344AD3
:10205000134019007B685A682F4B0A431A621723F2
:10206000FB181B78012B05D12B4BDA692A4B2F4922
:102070000A40DA617B681B680122134009D0264BB5
:102080001B6B0322934319007B689A68224B0A4317
:102090001A637B681B680222134009D01E4B1B6B1E
:1020A000234A134019007B68DA681B4B0A431A6302
:1020B0007B681B682022134009D0174B1B6B102232
:1020C000934319007B681A69134B0A431A637B68B0
:1020D0001A6880239B02134009D00F4B1B6B802290
:1020E000934319007B689A690B4B0A431A637B6818
:1020F0001A688023DB00134009D0074B1B6B40227A
:10210000934319007B685A69034B0A431A630023FF
:102110001800BD4606B080BD0010024000700040AF
:10212000FFFCFFFFFFFFFEFF88130000FFFFFFEF34
:10213000FFFFFCFF80B582B000AF78607B68002BAA
:1021400001D1012344E07B68DB6F002B07D17B6862
:102150007822002199547B681800FEF7F7FA7B6813
:102160002422DA677B681B681A687B681B68012178
:102170008A431A607B685B6A002B03D07B68180077
:1021800000F054FA7B68180000F0C8F80300012B37
:1021900001D101231CE07B681B685A687B681B68BF
:1021A0000D490A405A607B681B689A687B681B6807
:1021B0002A218A439A607B681B681A687B681B68BF
:1021C00001210A431A607B68180000F0E3FA03005B
:1021D0001800BD4602B080BDFFB7FFFF80B58AB0D2
:1021E00002AFF860B9603B60BB1D1A80FB68DB6F13
:1021F000202B00D08CE0BB68002B03D0BB1D1B88BC
:10220000002B01D1012384E0FB689A6880235B01E5
:102210009A4209D1FB681B69002B05D1BB680122DA
:10222000134001D0012374E0FB68842200219950FF
:10223000FB682122DA67FEF7EBFB03007B61FB689A
:10224000BA1D502112885A52FB68BA1D52211288B9
:102250005A52FB689A6880235B019A4208D1FB6856
:102260001B69002B04D10023FB61BB68BB6103E049
:10227000BB68FB610023BB612FE07A69F8683B68AB
:10228000009313000022802100F02CFB031E04D0D9
:10229000FB682022DA6703233BE0FB69002B0BD1AC
:1022A000BB691A88FB681B68D205D20D92B21A85E9
:1022B000BB690233BB6107E0FB691A78FB681B68E6
:1022C0001A85FB690133FB61FB6852229B5A9BB262
:1022D000013B99B2FB6852229952FB6852229B5AE9
:1022E0009BB2002BC9D17A69F8683B680093130050
:1022F0000022402100F0F6FA031E04D0FB682022E1
:10230000DA67032305E0FB682022DA67002300E098
:1023100002231800BD4608B080BD000080B588B01B
:1023200000AF78601E23FB1800221A707B689A6841
:102330007B681B691A437B685B691A437B68DB69AE
:1023400013437B617B681B681B68AF4A134019000D
:102350007B681B687A690A431A607B681B685B6844
:10236000AA4A134019007B68DA687B681B680A4335
:102370005A607B689B697B617B681B6A7A6913433F
:102380007B617B681B689B68A14A134019007B68CE
:102390001B687A690A439A607B681B689D4A93426E
:1023A00027D19D4B1B6B03221340032B0DD01BD851
:1023B000022B14D018D8002B02D0012B0AD013E026
:1023C0001F23FB1800221A7065E01F23FB1802224E
:1023D0001A7060E01F23FB1804221A705BE01F23B1
:1023E000FB1808221A7056E01F23FB1810221A70DF
:1023F00051E07B681B68894A934234D1864B1A6B43
:10240000C0239B021340C0229202934217D0C022E5
:102410009202934222D880229202934219D08022C3
:10242000920293421AD8002B04D080225202934287
:102430000AD013E01F23FB1800221A702BE01F2381
:10244000FB1802221A7026E01F23FB1804221A70C0
:1024500021E01F23FB1808221A701CE01F23FB1821
:1024600010221A7017E07B681B686D4A934204D1F2
:102470001F23FB1800221A700DE07B681B68694A55
:10248000934204D11F23FB1800221A7003E01F237C
:10249000FB1810221A707B68DA6980231B029A42AB
:1024A0005CD11F23FB181B78082B15D018DC042BDC
:1024B0000DD015DC002B02D0022B05D010E0FFF769
:1024C00025FD0300BB6112E0574BBB610FE0FFF736
:1024D000A1FC0300BB610AE080231B02BB6106E094
:1024E0000023BB611E23FB1801221A70C046BB6982
:1024F000002B00D17AE0BB695A007B685B685B08FF
:10250000D2187B685B6819001000FDF70FFE03000E
:102510003B613B690F2B1CD93A6980235B029A42CD
:1025200017D23B699AB20E203B180F218A431A80BA
:102530003B695B089BB20722134099B23B183A18DB
:1025400012880A431A807B681B683A181288DA607E
:102550004CE01E23FB1801221A7047E01F23FB18D2
:102560001B78082B15D018DC042B0DD015DC002BA4
:1025700002D0022B05D010E0FFF7C8FC0300BB61BE
:1025800012E0294BBB610FE0FFF744FC0300BB6185
:102590000AE080231B02BB6106E00023BB611E230F
:1025A000FB1801221A70C046BB69002B1ED07B6845
:1025B0005B685A08BB69D2187B685B681900100019
:1025C000FDF7B4FD03003B613B690F2B0AD93A6963
:1025D00080235B029A4205D23B699AB27B681B68F2
:1025E000DA6003E01E23FB1801221A707B680022C8
:1025F0009A667B680022DA661E23FB181B78180097
:10260000BD4608B080BDC046F369FFEFFFCFFFFFB6
:10261000FFF4FFFF0038014000100240004400407A
:1026200000480040004C004000127A0080B582B0A3
:1026300000AF78607B685B6A082213400BD07B6830
:102640001B685B684A4A134019007B685A6B7B68B9
:102650001B680A435A607B685B6A012213400BD0F7
:102660007B681B685B68434A134019007B689A6A61
:102670007B681B680A435A607B685B6A02221340CE
:102680000BD07B681B685B683B4A134019007B6872
:10269000DA6A7B681B680A435A607B685B6A0422BB
:1026A00013400BD07B681B685B68344A13401900E9
:1026B0007B681A6B7B681B680A435A607B685B6A9D
:1026C000102213400BD07B681B689B682C4A134078
:1026D00019007B689A6B7B681B680A439A607B6869
:1026E0005B6A202213400BD07B681B689B68254ADD
:1026F000134019007B68DA6B7B681B680A439A6099
:102700007B685B6A402213401DD07B681B685B6856
:102710001D4A134019007B681A6C7B681B680A43CA
:102720005A607B681A6C80235B039A420BD17B68EA
:102730001B685B68154A134019007B685A6C7B68FC
:102740001B680A435A607B685B6A802213400BD087
:102750007B681B685B680E4A134019007B689A6CA3
:102760007B681B680A435A60C046BD4602B080BD04
:10277000FF7FFFFFFFFFFDFFFFFFFEFFFFFFFBFFF0
:10278000FFEFFFFFFFDFFFFFFFFFEFFFFFFF9FFFF9
:10279000FFFFF7FF80B592B002AF78607B688422BC
:1027A00000219950FEF734F90300FB637B681B6836
:1027B0001B6808221340082B2CD1FB6B802291034D
:1027C0007868464A0092002200F08CF8031E21D05F
:1027D000EFF310837B627B6ABB630123BB62BB6A3E
:1027E00083F31088C0467B681B681A687B681B6887
:1027F00080218A431A60BB6BFB62FB6A83F31088FB
:10280000C0467B682022DA677B68782200219954D1
:1028100003235FE07B681B681B6804221340042BC2
:1028200046D1FB6B8022D10378682C4A00920022AB
:1028300000F058F8031E3BD0EFF31083FB60FB68F9
:102840007B6301233B613B6983F31088C0467B684F
:102850001B681A687B681B6821490A401A607B6BF9
:102860007B617B6983F31088C046EFF31083BB6103
:10287000BB693B630123FB61FB6983F31088C0469E
:102880007B681B689A687B681B6801218A439A6091
:102890003B6B3B623B6A83F31088C0467B688022B7
:1028A000202199507B68782200219954032311E05C
:1028B0007B682022DA677B688022202199507B6820
:1028C00000221A667B6800225A667B687822002103
:1028D000995400231800BD4610B080BDFFFFFF01D2
:1028E000DFFEFFFF80B584B000AFF860B9603B60E9
:1028F000FB1D1A7051E0BB6901334ED0FEF788F81A
:1029000002003B68D31ABA699A4202D3BB69002B12
:1029100001D1032351E0FB681B681B6804221340AC
:102920003BD0BB68802B38D0BB68402B35D0FB68D0
:102930001B68DB6908221340082B11D1FB681B6858
:1029400008221A62FB68180000F03CF8FB68842239
:1029500008219950FB6878220021995401232CE02A
:10296000FB681B68DA6980231B011A4080231B0166
:102970009A4212D1FB681B68802212011A62FB681E
:10298000180000F01FF8FB68842220219950FB6892
:1029900078220021995403230FE0FB681B68DB6950
:1029A000BA681340BA68D31A5A425341DBB21A00CC
:1029B000FB1D1B789A429ED000231800BD4604B030
:1029C00080BD000080B58EB000AF7860EFF310835B
:1029D0007B617B697B630123BB61BB6983F31088E7
:1029E000C0467B681B681A687B681B6826490A40DA
:1029F0001A607B6BFB61FB6983F31088C046EFF3C1
:102A000010833B623B6A3B6301237B627B6A83F3F7
:102A10001088C0467B681B689A687B681B68012128
:102A20008A439A603B6BBB62BB6A83F31088C046E3
:102A30007B681B6E012B18D1EFF31083BB60BB6862
:102A4000FB620123FB60FB6883F31088C0467B6850
:102A50001B681A687B681B6810218A431A60FB6A2E
:102A60003B613B6983F31088C0467B68802220214C
:102A700099507B6800221A667B6800229A66C046DD
:102A8000BD460EB080BDC046DFFEFFFF00B59BB067
:102A90000091049106490591029106490391694606
:102AA00000F0A6F90022009B1A701BB000BDC046C2
:102AB000FFFFFF7F0802FFFF10B5044C13000A0060
:102AC00001002068FFF7E2FF10BDC0460C000020A7
:102AD00003008218934200D1704719700133F9E75F
:102AE000014B18687047C0460C00002070B50026E6
:102AF0000C4C0D4D641BA410A64209D1002600F019
:102B000065FC0A4C0A4D641BA410A64205D170BD99
:102B1000B300EB5898470136EEE7B300EB589847FF
:102B20000136F2E7603400086034000864340008BD
:102B3000603400087047704770B505000C1E10D057
:102B4000043C2368002B00DAE418280000F0E0F8C9
:102B50001D4A1368002B05D163601460280000F043
:102B6000DFF870BDA34208D9206821188B42F3D149
:102B700019685B6809182160EEE71A005B68002B92
:102B800001D0A342F9D911685018A0420BD1206896
:102B90000918501811608342E0D118685B68411829
:102BA00011605360DAE7A04202D90C232B60D5E70D
:102BB000206821188B4203D119685B6809182160CD
:102BC00063605460CAE7C0463803002070B50F4EFA
:102BD0000D0031680400002902D100F099FB30603B
:102BE0002900200000F094FB431C03D101256D4215
:102BF000280070BD0323C51C9D43A842F8D0291AA4
:102C0000200000F085FB0130F2D1EFE73403002013
:102C1000F7B50322CB1C9343083305001F000C2B90
:102C200034D20C27B94233D8280000F071F8374E5F
:102C300033681C00002C2FD139002800FFF7C6FF95
:102C40000400431C5FD134680094009B002B4AD1E0
:102C5000002C52D023682800E3180099019300F05B
:102C600057FB019B834248D123682800FF1A390093
:102C7000FFF7ACFF013040D02368DB1923603368D5
:102C80005A68002A33D1009B336019E0002BC9DA5F
:102C90000C232B600020FEBD2168C91B20D40B290A
:102CA0000AD9E2192760A34204D132606368116037
:102CB000536005E05A60F9E76268A3420ED13260C2
:102CC000280000F02DF8200007220B30231D904330
:102CD000C21A9842DFD01B1AA350DCE75A60EFE714
:102CE00023006468A6E7009C63680093ADE71A00C0
:102CF0005B68A342FBD10023DAE70C2328002B609A
:102D000000F00EF8C6E70760DAE7C0463803002097
:102D100010B50248FFF70EFF10BDC046300300207B
:102D200010B50248FFF707FF10BDC0463003002072
:102D3000F0B58E6885B01F000C000B6802900392FE
:102D4000BE4230D80C21625E9021C9000A4228D0D0
:102D5000032021695B1A0193636943430198DD0FE6
:102D6000ED187B1C1B186D10AB4200D91D005205DD
:102D700028D529000298FFF74BFF061E2CD0019A98
:102D8000216900F0E2FAA289184B1A40802313430C
:102D9000A381019B2661F61826603E006561ED1A4D
:102DA000A560BE4200D93E0032000399206800F0C1
:102DB0009BFA0020A3689B1BA36023689B192360D8
:102DC00005B0F0BD2A00029800F0C8FA061EE0D156
:102DD00021690298FFF7B0FE0C230120029A4042BD
:102DE0001360A28934331343A381E9E77FFBFFFF1C
:102DF000F0B5A1B003901D008B890F0016001B06D3
:102E000011D50B69002B0ED14021FFF701FF38606F
:102E10003861002805D10C23039A13600120404239
:102E2000CFE040237B61002308AC636120336376ED
:102E30001033A376079535002B78002B01D0252B76
:102E400048D1AB1B0593B5420BD032003900039833
:102E5000FFF76EFF013000D1AEE06369059A9B1861
:102E600063612B78002B00D1A6E00122002352429F
:102E7000626004A9543252186E1C2360E360A360A0
:102E80001370A365544B052218003178059300F0A8
:102E900051FA751C00281FD12268D30604D553238C
:102EA00004A95B1820211970130704D5532304A922
:102EB0005B182B21197033782A2B16D0350000218E
:102EC0000A20E3682A786E1C303A092A50D9002972
:102ED00011D117E00135AFE7059B2268C01A012325
:102EE000834013432E002360CCE7079B191D1B680A
:102EF0000791002B01DB0B9304E05B42E3600223AC
:102F0000134323602B782E2B0CD16B782A2B34D1D2
:102F1000079B02351A1D1B680792002B01DA01235B
:102F20005B4209932D4E03223000297800F002FA0B
:102F3000002806D04023801B8340226801351343BC
:102F400023602978062226486E1C217600F0F2F9CB
:102F5000002838D0234B002B22D10722079B0733B0
:102F60009343083307936369049A9B18636162E78C
:102F70004343350001219B18A4E700230A201900D0
:102F8000013563602A786E1C303A092A03D9002B78
:102F9000C8D00991C6E74143350001238918F1E7FC
:102FA00007AA009221003A000F4B039800E000BFEF
:102FB0000490049B0133D6D1BB890D985B0600D5E4
:102FC0002CE721B0F0BD07AA009221003A00064B81
:102FD000039800F07BF8EBE72C340008323400084B
:102FE0003634000800000000312D0008F7B5160047
:102FF00001938A680B690C000090934200DA130079
:103000002200336043321278002A01D0013333604A
:1030100023689B0602D53368023333602268062397
:1030200015001D401A4227D0230043331B785A1E37
:1030300093412268920630D4220001990098089D9D
:103040004332A847013025D00622236800251340CB
:10305000042B05D13368E568ED1AEB43DB171D40FF
:10306000A3682269934201DD9B1AED180026B54240
:1030700020D1002010E00135E36832689B1AAB4292
:10308000D2DD2200012301990098089F1932B84728
:103090000130F0D101204042FEBD3020E118433123
:1030A000087021005A1C45310978A21843320233B6
:1030B0001170C1E72200012301990098089F1A327C
:1030C000B8470130E6D00136D1E70000F0B58BB04B
:1030D00006920A0043320793059003920A7E0C0081
:1030E000109B782A09D8622A0BD8002A00D1BCE0AC
:1030F0007B490491582A00D190E0250042352A707E
:1031000022E0100063381528F7D8FDF705F81600FF
:103110001F00F6FFF6FFF6FFF6FF1F00F6FFF6FFB3
:10312000F6FFF6FFA10036008000F6FFF6FFB200C2
:10313000F6FF3600F6FFF6FF840025001A684235D8
:10314000111D196013682B700123A0E0186809682D
:10315000021D0D060BD506681A60002E03DA2D231A
:10316000039A764213705E4B0A27049318E00668B0
:103170001A604906F1D536B2EFE70868196840C908
:10318000050602D4400600D5B6B21960544B0A2792
:1031900004936F2A00D1023F2300002243331A70A8
:1031A0006368A360002B03DB042122688A4322604A
:1031B000002E02D1039D002B0CD0039D300039005E
:1031C000FDF73AF8049B013D5B5C2B703300060071
:1031D0009F42F3D9082F09D12368DB0706D562681F
:1031E00023699A4202DC3023013D2B70039B5B1B59
:1031F0002361079B210000930598069B09AAFFF70E
:10320000F5FE013048D1012040420BB0F0BD202234
:1032100009680A432260782232490491210045312D
:103220000A701968226840C9100602D4500600D5F9
:10323000B6B21960D30702D5202313432360002EB2
:1032400001D01027A8E72022236893432360F8E7E2
:103250001A680D68101D4969186013682E0601D59B
:10326000196002E06D06FBD519800023039D2361E0
:10327000BFE71A68111D19601568002128006268EF
:1032800000F058F8002801D0401B6060636823619B
:103290000023039A1370ACE72A0023690699059866
:1032A000079DA8470130AED023689B0715D4099B22
:1032B000E0689842A9DA1800A7E7220001230699DE
:1032C0000598079E1932B04701309CD00135E3685C
:1032D000099A9B1AAB42F0DCE9E70025F7E7C04604
:1032E0003D3400084E34000810B5884206D800234B
:1032F0009A4208D0CC5CC4540133F9E78B18984249
:10330000F5D2013A00D210BD8B5C8354F9E700007E
:10331000002370B5064D040008002B60FDF7B8FAD5
:10332000431C03D12B68002B00D0236070BDC04626
:103330002C030020C9B28218904201D100207047AE
:1033400003788B42FBD00130F6E7002310B59A4298
:1033500000D110BDCC5CC4540133F8E7F7B50600CA
:103360000C001500002905D11100FFF751FC0400E5
:103370002000FEBD002A03D1FFF7DEFB0024F7E7A3
:1033800000F01BF80700854202D84308AB42EFD398
:1033900029003000FFF73CFC01900028EED02A0005
:1033A000BD4200D93A0021000198FFF7CEFF21006D
:1033B0003000FFF7C1FB019CDAE70B1F1B68181FE9
:1033C000002B01DA0B58C01870470000F8B5C04652
:1033D000F8BC08BC9E467047F8B5C046F8BC08BCAF
:0433E0009E4670474E
:1033E40050726F6A6563742025640A21000000002E
:1033F40000000000000000000102030406070809A1
:103404000000000001020304020304050607080982
:103414000A0B0C0D0E0F1010010203040506070819
:10342400090A0B0C0D0E0F10232D302B2000686C95
:103434004C006566674546470030313233343536D3
:10344400373839414243444546003031323334350C
:0C34540036373839616263646566000039
:04346000E900000877
:04346400C10000089B
:1034680000127A0004000000010000001000002093
:1034780000000000F40100205C020020C4020020CB
:103488000000000000000000000000000000000034
:103498000000000000000000000000000000000024
:1034A8000000000000000000000000000000000014
:0C34B80000000000000000000000000008
:0400000508000909DD
:00000001FF
