:020000040800F2
:1000000000400020FD170008451700084D170008A4
:1000100000000000000000000000000000000000E0
:100020000000000000000000000000006117000850
:1000300000000000000000006B17000875170008A2
:100040004D1800084D1800084D1800084D180008FC
:100050004D1800084D1800084D1800084D180008EC
:100060004D1800084D1800084D1800084D180008DC
:100070004D1800084D1800084D1800084D180008CC
:100080004D1800084D1800084D1800084D180008BC
:100090004D1800084D1800084D1800084D180008AC
:1000A0004D1800084D1800084D1800084D1800089C
:1000B0004D1800084D1800084D1800084D1800088C
:1000C00010B5064C2378002B07D1054B002B02D02E
:1000D000044800E000BF0123237010BD6800002029
:1000E0000000000098520008044B10B5002B03D00C
:1000F0000349044800E000BF10BDC04600000000F6
:100100006C000020985200080023C25C0133002AD2
:10011000FBD1581E7047000003B4714649084000E7
:100120004900095E49008E4403BC70470022430821
:100130008B4274D303098B425FD3030A8B4244D3AF
:10014000030B8B4228D3030C8B420DD3FF220902F1
:1001500012BA030C8B4202D31212090265D0030BB0
:100160008B4219D300E0090AC30B8B4201D3CB03A6
:10017000C01A5241830B8B4201D38B03C01A5241E8
:10018000430B8B4201D34B03C01A5241030B8B42EA
:1001900001D30B03C01A5241C30A8B4201D3CB02D5
:1001A000C01A5241830A8B4201D38B02C01A5241BA
:1001B000430A8B4201D34B02C01A5241030A8B42BD
:1001C00001D30B02C01A5241CDD2C3098B4201D3D5
:1001D000CB01C01A524183098B4201D38B01C01A53
:1001E000524143098B4201D34B01C01A52410309CA
:1001F0008B4201D30B01C01A5241C3088B4201D379
:10020000CB00C01A524183088B4201D38B00C01A25
:10021000524143088B4201D34B00C01A5241411A4C
:1002200000D20146524110467047FFE701B5002059
:1002300000F006F802BDC0460029F7D076E7704707
:100240007047C04690B587B000AF786013243B1963
:1002500000221A70214B180000F024FE7B681B78E6
:1002600001337B610023FB607B69043B7A68D11812
:100270000C23FB180422180004F0C4FB7B69191F2F
:10028000FA687B68180000F0B7FB031E1CD1144B02
:10029000180000F007FE012000F0E6FB00F014FC5F
:1002A00003001A003B191A703B191B7819003B19FF
:1002B0001B781A000B4B180000F0F4FD3B190121CC
:1002C000180000F085FB05E0074B180000F0EAFD80
:1002D00000F0E6FBC046BD4607B090BDB052000836
:1002E000D8520008F85200081C53000880B584B0AA
:1002F00000AF78601F4B180000F0D4FD7B681B78BE
:100300000133FB600023BB60FB68043B7A68D118B3
:100310000823FB180422180004F074FBFB68191F63
:10032000BA687B68180000F067FB031E17D1124BF8
:10033000180000F0B7FD114B1800FFF7E5FE0300B1
:10034000DBB2180000F090FB0C4B1800FFF7DCFE4E
:1003500002000A4B1100180000F03AFB05E0084BC0
:10036000180000F09FFD00F09BFBC046BD4604B0A6
:1003700080BDC0463C5300086453000800000020C4
:100380008453000890B587B000AF786012243B1901
:1003900000221A80214B180000F084FD7B681B7836
:1003A00001337B610023FB607B69043B7A68D118D1
:1003B0000C23FB180422180004F024FB7B69191F8E
:1003C000FA687B68180000F017FB031E1CD1144B61
:1003D000180000F067FD022000F046FB00F07AFBF9
:1003E00003001A003B191A803B191B8819003B199E
:1003F0001B881A000B4B180000F054FD3B1902211A
:10040000180000F0E5FA05E0074B180000F04AFD7F
:1004100000F046FBC046BD4607B090BDA45300089F
:1004200064530008CC5300088453000890B587B08B
:1004300000AF786013243B1900221A70214B18007A
:1004400000F030FD7B681B7801337B610023FB608B
:100450007B69043B7A68D1180C23FB18042218002E
:1004600004F0D0FA7B69191FFA687B68180000F065
:10047000C3FA031E1CD1144B180000F013FD012019
:1004800000F0F2FA00F038FB03001A003B191A7072
:100490003B191B7819003B191B781A000B4B1800ED
:1004A00000F000FD3B190121180000F091FA05E071
:1004B000074B180000F0F6FC00F0F2FAC046BD460B
:1004C00007B090BDF853000864530008205400089A
:1004D0008453000890B589B000AF786000237B6139
:1004E00013243B1900221A701223FB1801221A70E0
:1004F0002E4B180000F0D6FC7B681B780133FB61A3
:100500000023FB60FB69043B7A68D1180C23FB18BD
:100510000422180004F076FAFB69191FFA687B6858
:10052000180000F069FA031E36D1214B180000F0C4
:10053000B9FC012000F098FA7B68991C1423FB1881
:100540000422180004F05EFA7A691A4B11001800B0
:1005500000F0A8FC7B69180000F0E4FA031E10D13B
:100560003B190121180000F033FA7B6901337B61EC
:100570007B69BB61104B180000F094FCBB69984785
:1005800010E00E4B180000F08DFC1223FB18012127
:10059000180000F01DFA05E0094B180000F082FC7D
:1005A00000F07EFAC046BD4609B090BD4C5400082C
:1005B000645300087854000898540008BC5400089C
:1005C0008453000890B587B000AF786013243B19BE
:1005D00000221A702A4B180000F064FC7B681B781C
:1005E00001337B610023FB607B69043B7A68D1188F
:1005F0000C23FB180422180004F004FA7B69191F6D
:10060000FA687B68180000F0F7F9031E2ED11D4B25
:10061000180000F047FC012000F026FA7B68023346
:100620001B7819007B6803331B781A00164B1800DF
:1006300000F038FC7B6802331A787B6803331B7840
:100640001900100000F092FA03001A003B191A700A
:100650003B191B781A000D4B1100180000F022FC0A
:100660003B190121180000F0B3F905E0084B180010
:1006700000F018FC00F014FAC046BD4607B090BD6B
:10068000E05400080C550008305500086C5500086F
:1006900084530008F0B589B000AF78601F23FB18C1
:1006A00000221A7017243B1900221A701E26BB194B
:1006B00000221A701D257B1900221A707B197A6896
:1006C00012781A701C23FB187A6892791A707B686A
:1006D000991C1022BB180422180004F093F97B190E
:1006E0001B787A68D218BB1912781A702F4B180031
:1006F00000F0D8FB0023FB607B681B780133BB61F3
:10070000BB69043B7A68D1180C22BB18042218007C
:1007100004F078F9BB69191FFA687B68180000F0CB
:100720006BF9031E37D1224B180000F0BBFB0120F0
:1007300000F09AF93A691F4B1100180000F0B2FB63
:100740003B69180000F0EEF9031E16D11A4B180091
:1007500000F0A8FB7B68D81D39691C23FB181B78A7
:100760001A0000F04CFA03001A003B191A703B19EA
:100770000121180000F02CF913E0104B180000F0D4
:1007800091FB17217B1801221A707B180121180098
:1007900000F01EF905E00A4B180000F083FB00F0A2
:1007A0007FF9C046BD4609B0F0BDC046945500086B
:1007B0000C550008C0550008EC55000818560008F4
:1007C0008453000890B587B000AF786013243B19BC
:1007D00000221A70254B180000F064FB0023FB6018
:1007E0007B681B7801337B617B69043B7A68D11895
:1007F0000C23FB180422180004F004F97B69191F6C
:10080000FA687B68180000F0F7F8031E24D1184B33
:10081000180000F047FB012000F026F97B68023346
:1008200018787B6803331B780022190000F050FA17
:1008300003001A003B191A703B191B781A000D4B64
:100840001100180000F02EFB3B190121180000F0E8
:10085000BFF801F041FE05E0074B180000F022FB55
:1008600000F01EF9C046BD4607B090BD48560008CE
:100870000C550008845600088453000890B587B0D2
:1008800000AF786012243B1900221A80214B180017
:1008900000F008FB0023FB607B681B7801337B6161
:1008A0007B69043B7A68D1180C23FB1804221800DA
:1008B00004F0A8F87B69191FFA687B68180000F03B
:1008C0009BF8031E1BD1144B180000F0EBFA01201B
:1008D00000F0CAF800F088FA02000B0092B23B194F
:1008E0001A803B191B881A000C4B1100180000F0ED
:1008F000D9FA3B190221180000F06AF805E0084B0C
:10090000180000F0CFFA00F0CBF8C046BD4607B0A3
:1009100090BDC046A05600080C550008E0560008DF
:100920008453000890B587B000AF786013243B195A
:1009300000221A70224B180000F0B4FA0023FB606A
:100940007B681B7801337B617B69043B7A68D11833
:100950000C23FB180422180004F054F87B69191FBB
:10096000FA687B68180000F047F8031E1DD1154B8C
:10097000180000F097FA012000F076F8012200211B
:10098000002000F0A5F903001A003B191A703B196A
:100990001B781A000C4B1100180000F083FA3B1969
:1009A0000121180000F014F805E0084B180000F0D1
:1009B00079FA00F075F8C046BD4607B090BDC04654
:1009C000005700080C5500083C57000884530008E5
:1009D00080B582B000AF786039603B689AB201237D
:1009E0005B427968034803F077FAC046BD4602B01F
:1009F00080BDC0461402002080B588B000AFF8600A
:100A0000B9607A60FF23FB6100237B610023BB6137
:100A100010E0FA68BB69D3181B787B611423F918BE
:100A2000104B0122180001F0DFFA0300FB61BB69E3
:100A30000133BB61BA69BB689A42EAD3094B1B68B0
:100A40009A68084B1B6801210A439A60FA697B681F
:100A50009A4201D1002300E001231800BD4608B0EE
:100A600080BDC046F001002080B584B000AF020018
:100A7000FB1D1A700C217B18A5221A707B18FA1D19
:100A800012785A7001235B4279180448022203F05D
:100A900023FAC046BD4604B080BDC0461402002003
:100AA00080B582B000AFFB1D7F221A7001235B422C
:100AB000F91D0448012203F00FFAC046BD4602B0FA
:100AC00080BDC0461402002080B500AF102318007E
:100AD000BD4680BD80B582B000AF064B1B689AB2A0
:100AE000BB1D1205120D1A80BB1D1B881800BD46C8
:100AF00002B080BD0058014090B589B000AF1F24FE
:100B00003B1900221A703B1D180001F0DDFE3B1955
:100B10003A1D127B1A703B191B781800BD4609B0AC
:100B200090BD000080B582B000AF78607A68802305
:100B30001B059A4205D37B680A4A934201D80023D9
:100B40000BE07A6880239B059A4205D37B68064AAE
:100B5000934201D8002300E001231800BD4602B0F3
:100B600080BDC046FFFF010800400020B0B588B03E
:100B700000AF0200FB1D1A70BB1D0A1C1A700C236B
:100B8000FB1818000C231A00002103F007FF0023B4
:100B9000BB60FB1D1B780F2B01D9FF232BE0FB1D36
:100BA0001B7880221202944663441B03FB6101F010
:100BB00035FC0C217B1800221A607B18FA695A60F8
:100BC000BB1D1B785B001A007B189A601B257C19E3
:100BD0000823FA187B181100180001F01FFD03000C
:100BE000237001F041FC7B191B78002B02D07B198C
:100BF0001B7800E000231800BD4608B0B0BDF0B57A
:100C000089B000AFF860B9607A601F23FB1800223A
:100C10001A7001F003FC00237B6149E001235B4271
:100C2000BB61FA687B69D3181B78BB617B690133B0
:100C30007A689A4208D97B690133FA68D3181B781D
:100C40001B02BA691343BB617B6902337A689A421B
:100C500008D97B690233FA68D3181B781B04BA6978
:100C60001343BB617B6903337A689A4208D97B6975
:100C70000333FA68D3181B781B06BA691343BB61A8
:100C8000BA687B69D118BB691C0000231D001F23B3
:100C9000FE1822002B00022001F02AFB0300337013
:100CA0001F23FB181B78002B07D17B6904337B6162
:100CB0007A697B689A42B1D300E0C04601F0D4FB68
:100CC0001F23FB181B781800BD4609B0F0BD0000BB
:100CD00090B58BB000AF040008001100FB1D221C72
:100CE0001A70BB1D021C1A707B1D0A1C1A7000238F
:100CF0007B6223243B1900221A707B1D1B78002B7A
:100D00001ED001F08BFB01F0BDFB08217B180122F6
:100D10001A607B18334A9A607B1800225A607B184D
:100D2000180001F03FFD031E02D03B1902221A7089
:100D300001F0C2FB01F098FB2323FB181B784CE069
:100D4000FB1D1B783F2B03D8BB1D1B78012B04D048
:100D50002323FB1801221A703CE02223FB180022F7
:100D60001A700DE022217B181B7801229A40130093
:100D70007A6A13437B627B181A787B1801321A70E7
:100D80002223FA18FB1D12781B789A42EAD901F047
:100D900045FB01F077FB08217B1801221A607B18C4
:100DA0007A6A9A607B1D1B78002B01D1012200E03A
:100DB000002208217B185A607B18180001F0F2FC11
:100DC000031E03D02323FB1803221A7001F074FBC7
:100DD00001F04AFB2323FB181B781800BD460BB01B
:100DE00090BDC046FFFF0000F0B58DB000AF0022FF
:100DF0000023BA62FB6201F045FB0826BB1918000C
:100E000001F062FD01F058FB3200BB189B683B62A9
:100E10001F239B18DB1900221A7034E01F210820C1
:100E20000B18DB191B783A6ADA40130001221340D1
:100E300020D10B18DB191B781A00203A002A03DB9B
:100E4000012191400D0008E02022D21A0121D14059
:100E50000A00002199400D00154301229A40140018
:100E6000BB6A23433B60FB6A2B437B603A687B6829
:100E7000BA62FB621F2108200B18DB191A780B18C5
:100E8000DB1901321A701F2308229B18DB191B780B
:100E90003F2BC3D9BA6AFB6A10001900BD460DB0DA
:100EA000F0BD00000FB480B59AB000AF7423FB18FA
:100EB0003B603A68396F3B1D180003F063FD3B1D32
:100EC0001800FFF721F903009AB201235B42391D94
:100ED000044803F001F8C046BD461AB080BC08BC07
:100EE00004B018479C02002080B582B000AFFB1D03
:100EF00000221A7096235A002A4B0021180003F092
:100F00004DFD01235B4227492748012203F084F865
:100F1000FB1D244A12781A70FB1D1B789AB201231C
:100F20005B422249204803F077F81E4B5B78513B27
:100F30000B2BDFD89A001E4BD3181B689F46194B0A
:100F40001800FFF77FF92CE0164B1800FFF7CEF9D9
:100F500027E0144B1800FFF715FA22E0114B180098
:100F6000FFF764FA1DE00F4B1800FFF7B3FA18E023
:100F70000C4B1800FFF726FB13E00A4B1800FFF795
:100F800089FB0EE0074B1800FFF71CFC09E0054B3E
:100F90001800FFF773FC04E0024B1800FFF7C2FCD7
:100FA000C046A7E78400002014020020850000202E
:100FB0005058000880B584B000AF174B1800FFF7F9
:100FC00071FF164B1B68FB60FA68154B1100180087
:100FD000FFF768FFFB687B607B6883F30888C04687
:100FE000104B1A68104B1A600F4B1A680F4B110008
:100FF0001800FFF757FF0C4B1B68BB60BB68984796
:10100000094B1A680A4B11001800FFF74BFFC04646
:10101000BD4604B080BDC046585700080080000897
:101020009057000804800008AC030020B057000867
:10103000D057000880B500AF00F00AFC00F02CF893
:1010400000F0AEF900F04CF900F08EF800F018F95D
:1010500000F0F2F800F074F980239B010B4A1900AC
:10106000100002F0BBF80300012B06D0084B18005B
:10107000FFF718FFFFF738FF06E0064B1800FFF7F1
:1010800011FFFFF797FFC046C046FDE70008004884
:10109000E85700082058000890B599B000AF2C24FC
:1010A0003B19180034231A00002103F077FC1C239D
:1010B000FB18180010231A00002103F06FFC3B00FE
:1010C00018001C231A00002103F068FC21007B1883
:1010D00011221A607B1801225A607B1801225A6182
:1010E0007B1810229A617B1802225A627B18802298
:1010F00052029A627B18A0229203DA627B180122C4
:101100001A637B18180002F0A3F8031E01D000F048
:10111000AFF91C217B1807221A607B1802225A6043
:101120007B1880229A607B180022DA607B180121EC
:10113000180002F013FC031E01D000F099F93B00E7
:1011400003221A603B0000229A603B000022DA6012
:101150003B00180002F06EFD031E01D000F088F97C
:10116000C046BD4619B090BD80B584B000AF3B1DF0
:1011700018000C231A00002103F010FC2C4B2D4A00
:101180001A602B4B00225A60294B00229A60284B90
:101190000022DA60264B01221A61254B04225A6193
:1011A000234B00221A76224B00225A76204B012232
:1011B0009A761F4B0022DA761D4BC222FF32DA618B
:1011C0001B4B00221A621A4B242200219954184BFF
:1011D00001229A62164B180000F09EFB031E01D0FC
:1011E00000F046F93B1D01221A603B1D802252018E
:1011F0005A603B1D802252059A603A1D0C4B11002B
:10120000180000F0C9FC031E01D000F031F93B1DAD
:1012100011221A603A1D064B1100180000F0BCFCA8
:10122000031E01D000F024F9C046BD4604B080BDC5
:10123000B00100200024014080B500AF0E4B0F4AE2
:101240001A600D4B00221A710B4B00225A710A4B87
:1012500000225A61084B00229A61074B01221A6250
:10126000054B180000F05AFE031E01D000F000F9F3
:10127000C046BD4680BDC046F0010020003002409F
:1012800080B500AF144B154A1A60134BE12252028D
:101290005A60114B00229A600F4B0022DA600E4B0D
:1012A00000221A610C4B0C225A610B4B00229A61EE
:1012B000094B0022DA61084B00221A62064B002219
:1012C0005A62054B180002F0B3FD031E01D000F076
:1012D000CFF8C046BD4680BD140200200038014052
:1012E00080B500AF144B154A1A60134BE12252022D
:1012F0005A60114B00229A600F4B0022DA600E4BAD
:1013000000221A610C4B0C225A610B4B00229A618D
:10131000094B0022DA61084B00221A62064B0022B8
:101320005A62054B180002F083FD031E01D000F045
:101330009FF8C046BD4680BD9C020020004400408E
:1013400080B500AF144B154A1A60134BE1225202CC
:101350005A60114B00229A600F4B0022DA600E4B4C
:1013600000221A610C4B0C225A610B4B00229A612D
:10137000094B0022DA61084B00221A62064B002258
:101380005A62054B180002F053FD031E01D000F015
:101390006FF8C046BD4680BD2403002000480040D1
:1013A00090B589B000AF0C243B19180014231A0023
:1013B000002103F0F3FA2C4B5A692B4B80210903CF
:1013C0000A435A61284B5A6980231B031340BB60B0
:1013D000BB68254B5A69244B8021C9030A435A61D3
:1013E000214B5A698023DB0313407B607B681E4BD3
:1013F0005A691D4B802189020A435A611A4B5A6966
:1014000080239B0213403B603B689023DB05002256
:101410002021180001F0FFFE3B19802292011A6082
:101420003B1900225A603B1901229A603B190F4A6E
:101430001900100001F05AFD21007B1820221A60CB
:101440007B1801225A607B1800229A607B180022C8
:10145000DA607A189023DB051100180001F046FDD0
:10146000C046BD4609B090BD0010024000080048CB
:1014700080B500AF72B6C046C046FDE780B582B009
:1014800000AF0F4B9A690E4B01210A439A610C4B36
:101490009B69012213407B607B68094BDA69084B2A
:1014A000802149050A43DA61054BDA6980235B052F
:1014B00013403B603B68C046BD4602B080BDC0469D
:1014C0000010024090B58BB000AF786014243B1937
:1014D000180014231A00002103F060FA7B681B68CF
:1014E000194A93422BD1194B9A69184B80218900D4
:1014F0000A439A61154B9A6980239B0013403B6114
:101500003B69124B5A69114B802189020A435A6187
:101510000E4B5A6980239B021340FB60FB683B190A
:1015200002221A603B1903225A603B1900229A607A
:101530003A199023DB051100180001F0D7FCC046D2
:10154000BD460BB090BDC0460024014000100240D3
:1015500080B584B000AF78607B681B68094A93420D
:101560000BD1094B5A69084B40210A435A61064B7B
:101570005B6940221340FB60FB68C046BD4604B077
:1015800080BDC046003002400010024090B58FB0D0
:1015900000AF786024243B19180014231A0000219E
:1015A00003F0FCF97B681B68614A934234D1614BBC
:1015B0009A69604B8021C9010A439A615D4B9A691F
:1015C0008023DB0113403B623B6A5A4B5A69594BFB
:1015D000802189020A435A61564B5A6980239B0233
:1015E0001340FB61FB693B19C022D2001A60210045
:1015F0007B1802225A607B1800229A607B18032213
:10160000DA607B1801221A617A189023DB05110039
:10161000180001F06BFC86E07B681B68464A934229
:101620004AD1444BDA69434B802189020A43DA618B
:10163000404BDA6980239B021340BB61BB693D4B81
:101640005A693C4B802189020A435A61394B5A69D5
:1016500080239B0213407B617B6924243B19042275
:101660001A603B1902225A603B1900229A603B190A
:101670000322DA603B1901221A613A199023DB0533
:101680001100180001F032FC21007B1808221A60BA
:101690007B1802225A607B1800229A607B18002275
:1016A000DA607B1801221A617A189023DB05110099
:1016B000180001F01BFC36E07B681B681F4A934250
:1016C00031D11C4BDA691B4B8021C9020A43DA6114
:1016D000184BDA698023DB0213403B613B69154BF1
:1016E0005A69144B802109030A435A61114B5A6904
:1016F00080231B031340FB60FB6824217B183022EE
:101700001A607B1802225A607B1800229A607B18AC
:101710000322DA607B1801221A617B18084A19003B
:10172000100001F0E3FBC046BD460FB090BDC046BF
:1017300000380140001002400044004000480040D2
:101740000008004880B500AFC046FDE780B500AF97
:10175000024B1800FFF7A6FBC046FDE744580008FF
:1017600080B500AFC046BD4680BD80B500AFC04665
:10177000BD4680BD80B500AF00F0B2F8C046BD46A2
:1017800080BD000080B586B000AF7860144A154B6C
:10179000D31A7B617B693B61134B1B68002B02D121
:1017A000114B124A1A60104B1A687B68D3183A69B9
:1017B0009A4207D203F0FAF803000C221A600123C0
:1017C0005B4209E0084B1B68FB60074B1A687B68AB
:1017D000D218054B1A60FB681800BD4606B080BDE4
:1017E0000040002000040000B0030020200500207D
:1017F00080B500AFC046BD4680BD00000D4885469F
:10180000FFF7F6FF0C480D490D4A002302E0D458BB
:10181000C4500433C4188C42F9D30A4A0A4C00233A
:1018200001E013600432A242FBD303F0C5F8FFF7D6
:1018300001FCFEE7004000200000002068000020BE
:10184000F45800086800002020050020FEE7000092
:1018500080B500AF074B1A68064B10210A431A6087
:10186000002000F009F8FFF709FE00231800BD462C
:1018700080BDC0460020024090B583B000AF7860C4
:10188000144B1C68144B1B781900FA239800FEF7C0
:101890004DFC030019002000FEF748FC030018006F
:1018A00000F02FFB031E01D001230FE07B68032B08
:1018B0000BD8796801235B420022180000F00CFB72
:1018C000064B7A681A60002300E001231800BD4629
:1018D00003B090BD0C000020140000201000002078
:1018E00080B500AF054B1B781A00054B1B68D2185A
:1018F000034B1A60C046BD4680BDC04614000020A0
:10190000B403002080B500AF024B1B681800BD4631
:1019100080BDC046B403002080B584B000AF7860BD
:101920000F23FB1800221A700023BB607B68002B7A
:1019300001D1012325E17B689B6B002B0AD17B68D9
:101940000022DA637B683422002199547B681800F6
:10195000FFF7B8FD7B689B6B1022134000D003E1BA
:101960000F23FB181B78002B00D0FDE07B681B6861
:101970009B680422134000D0F6E07B689B6B834A8F
:10198000134002221A437B689A637B681B689B683A
:1019900003221340012B12D17B681B681B680122B4
:1019A0001340012B09D07B681B68DA6880231B0277
:1019B0001A4080231B029A4201D1012300E0002338
:1019C000002B16D17B681B68DB6818229343190033
:1019D0007B689A687B681B680A43DA607B681B68CF
:1019E0001B699B0099087B685A687B681B680A43DF
:1019F0001A617B681B68DA687B681B6864490A4067
:101A0000DA607B681B7E9A037B685B7EDB031A438C
:101A10007B689B7E5B031A437B689B6A012B02D029
:101A200080235B0100E000231A437B68DB681A43D4
:101A30007B681B69022B01D1042300E000231A43B9
:101A40007B6824215B5C5B001343BA681343BB6073
:101A50007B68DB7E012B15D17B689B7E002B05D13B
:101A6000BB68802252021343BB600BE07B689B6B18
:101A700020221A437B689A637B68DB6B01221A433E
:101A80007B68DA637B68DA69C223FF339A4207D046
:101A90007B68DA697B681B6A1343BA681343BB60CF
:101AA0007B681B68D9687B681B68BA680A43DA6080
:101AB0007B68DA6A80235B059A421BD07B68DB6A0D
:101AC000012B17D07B68DB6A022B13D07B68DB6AA3
:101AD000032B0FD07B68DB6A042B0BD07B68DB6A9F
:101AE000052B07D07B68DB6A062B03D07B68DB6A9B
:101AF000072B12D17B681B685A697B681B6807211A
:101B00008A435A617B681B6859697B68DB6A0722D4
:101B10001A407B681B680A435A617B681B68DB6854
:101B20001C4A1340BA689A420BD17B680022DA63E0
:101B30007B689B6B0322934301221A437B689A6361
:101B40001CE07B689B6B1222934310221A437B6834
:101B50009A637B68DB6B01221A437B68DA630F238D
:101B6000FB1801221A7009E07B689B6B10221A4354
:101B70007B689A630F23FB1801221A700F23FB184E
:101B80001B781800BD4604B080BDC046FDFEFFFFB7
:101B90001902FEFFE7FF3F8380B584B000AF786095
:101BA00039600F23FB1800221A700023BB607B688A
:101BB000DA6A80235B059A4211D07B68DB6A012BCD
:101BC0000DD07B68DB6A022B09D07B68DB6A032BB4
:101BD00005D07B68DB6A042B01D07B68DB6A7B68FD
:101BE00034229B5C012B01D10223D0E07B6834229C
:101BF000012199547B681B689B680422134000D024
:101C0000B4E03B685B68644A934200D182E07B6841
:101C10001B68996A3B681B6801229A407B681B68B5
:101C20000A439A627B68DA6A80235B059A4237D05E
:101C30007B68DB6A012B33D07B68DB6A022B2FD0F9
:101C40007B68DB6A032B2BD07B68DB6A042B27D0F5
:101C50007B68DB6A052B23D07B68DB6A062B1FD0F1
:101C60007B68DB6A072B1BD03B689A687B681B6824
:101C70005B6907210B409A4212D07B681B685A6946
:101C80007B681B6807218A435A617B681B68596916
:101C90003B689B6807221A407B681B680A435A61AD
:101CA0003B681B68102B07D03B681B68112B03D0C7
:101CB0003B681B68122B63D1384B19683B681B6863
:101CC000102B09D03B681B68112B02D18023DB034A
:101CD00004E080235B0401E080231B042F4A0B43B4
:101CE00013603B681B68102B4AD12D4B1B682D4994
:101CF0001800FEF71BFA03001A0013009B009B1844
:101D00005B00BB6002E0BB68013BBB60BB68002BB3
:101D1000F9D135E07B681B689A6A3B681B68012132
:101D200099400B00D9437B681B680A409A623B6864
:101D30001B68102B07D03B681B68112B03D03B6836
:101D40001B68122B1CD1154B19683B681B68102BA4
:101D500007D03B681B68112B01D1134B02E0134BDA
:101D600000E0134B0D4A0B40136009E07B689B6B4E
:101D700020221A437B689A630F23FB1801221A70F2
:101D80007B683422002199540F23FB181B7818001C
:101D9000BD4604B080BDC0460110000008270140C8
:101DA0000C00002040420F00FFFFBFFFFFFFFFFEBF
:101DB000FFFF7FFF90B583B000AF02003960FB1DCD
:101DC0001A70FB1D1B787F2B28D82F4AFB1D1B7810
:101DD0005BB29B08C0339B009B58FA1D1278110020
:101DE00003220A40D200FF2191400A00D2431A4048
:101DF00011003B689B01FF221A40FB1D1B78180055
:101E000003230340DB009A401F48FB1D1B785BB295
:101E10009B080A43C0339B001A5031E01B4AFB1D4C
:101E20001B7819000F230B40083B9B0806339B00CF
:101E3000D31804331B68FA1D1278110003220A40DC
:101E4000D200FF2191400A00D2431A4011003B68A2
:101E50009B01FF221A40FB1D1B781800032303403F
:101E6000DB009A400948FB1D1B781C000F23234010
:101E7000083B9B080A4306339B00C31804331A60CF
:101E8000C046BD4603B090BD00E100E000ED00E0BB
:101E900080B582B000AF78607B685A1E80235B04F7
:101EA0009A4201D3012310E00A4B7A68013A5A6042
:101EB00001235B4203211800FFF77CFF054B002242
:101EC0009A60044B07221A6000231800BD4602B036
:101ED00080BDC04610E000E080B584B000AFB960BE
:101EE0007A600F217B18021C1A70BA687B181B7865
:101EF0005BB211001800FFF75DFFC046BD4604B09D
:101F000080BD80B582B000AF78607B681800FFF7B5
:101F1000BFFF03001800BD4602B080BD80B582B08F
:101F200000AF78607B68002B01D1012356E07B680D
:101F30005B7FDBB2002B06D17B6800221A777B68BF
:101F40001800FFF705FB7B6802225A777B681B7934
:101F5000002B0CD17B681B68224A5A617B681B6886
:101F60009A687B681B6818218A439A600BE07B683B
:101F700099687B68DA687B68180000F044F9031EF2
:101F800001D001232AE07B685B79002B05D17B68B7
:101F90001B68012252421A6104E07B681B687A6860
:101FA00012691A617B681B689B6860229343190061
:101FB0007B685A697B681B680A439A607B681B6868
:101FC0009B688022934319007B689A697B681B6831
:101FD0000A439A607B6801225A7700231800BD46A5
:101FE00002B080BDB71DC10480B586B000AFF860F7
:101FF000B9607A6000233B61FB6802225A77FB6874
:102000001B6A032B05D02DD8012B19D0022B20D011
:1020100028E000237B610AE07B699B00BA68D21844
:10202000FB681B6812681A607B6901337B617A69FF
:102030007B689A42F0D3FB681B681B683B6112E027
:102040007A68B968FB68180000F015F803003B6176
:1020500009E07A68B968FB68180000F09DF8030091
:102060003B6100E0C046FB6801225A773B691800DB
:10207000BD4606B080BD80B588B000AFF860B960DD
:102080007A600023FB6123E0FB699B00BA68D318E8
:102090001B781A06FB699B000133B968CB181B78C3
:1020A0001B041A43FB699B000233B968CB181B78E9
:1020B0001B021A43FB699B000333B968CB181B78DA
:1020C0001900FB681B680A431A60FB690133FB6156
:1020D0007B689B08FA699A42D6D37B680322134037
:1020E00053D07B6803221340012B07D1FB699B006F
:1020F000BA68D218FB681B6812781A707B680322D2
:102100001340022B19D1FB699B00BA68D3181B78C6
:102110001B021AB2FB699B000133B968CB181B780C
:102120001BB213431AB21A217B181A80FB681B6872
:102130007B617B697A1812881A807B6803221340BE
:10214000032B22D1FB699B00BA68D3181B781B02B2
:102150001AB2FB699B000133B968CB181B781BB21C
:1021600013431AB21A217B181A80FB681B687B6123
:102170007B697A1812881A80FB699B000233BA685F
:10218000D218FB681B6812781A70FB681B681B6802
:102190001800BD4608B080BD80B586B000AFF860BD
:1021A000B9607A6000237B6113E07B699B00BA68A9
:1021B000D3181B881A047B699B000233B968CB18BB
:1021C0001B881900FB681B680A431A607B6901338E
:1021D0007B617B685B087A699A42E6D37B6801225F
:1021E000134009D0FB681B683B617B699B00BA68A0
:1021F000D3181A883B691A80FB681B681B68180093
:10220000BD4606B080BD80B586B000AFF860B9604D
:102210007A6017217B1800221A701F233B61BB686C
:102220000122134003D17B1801221A7045E0C046F9
:102230003B695A1E3A61002B08D03B691F221340AC
:10224000BA68DA40130001221340F1D07B68182BE2
:102250000FD07B68182B24D87B68102B11D07B689B
:10226000102B1ED87B68002B20D07B68082B10D049
:1022700017E03B69062B1BD91723FB1801221A70A4
:1022800016E03B69072B15D91723FB1801221A709A
:1022900010E03B690F2B0FD91723FB1801221A708E
:1022A0000AE01723FB1801221A7006E0C04604E07A
:1022B000C04602E0C04600E0C0461723FB181B786A
:1022C000002B0ED1FB681B68BA685A61FB681B685B
:1022D0009B68182293431900FB681B687A680A43BD
:1022E0009A601723FB181B781800BD4606B080BD06
:1022F000F0B587B000AFF860B9603A607B60172333
:10230000FB1801221A701623FB1800221A701523DD
:10231000FB1800221A703E4B1B7E012B01D10223B9
:1023200072E03B4B01221A761723FE18394B180036
:1023300000F004F9030033701723FB181B78002BFF
:102340005CD1FB68012B04D11523FB1801221A7004
:102350000BE0FB68022B04D11523FB1802221A7034
:1023600003E01523FB1804221A701623FB18002221
:102370001A7039E016217B181B785A00BB68D018F8
:102380007B181B781B011A00203A002A03DB7968AE
:10239000D1400C0008E02022D21A796891400A004E
:1023A0003968D9400C0014437A68DA401500A3B2AA
:1023B000190000F0A7F81723FE18164B180000F0BC
:1023C000BDF803003370144B1A69134B01218A4383
:1023D0001A611723FB181B78002B0ED116217B18CE
:1023E0001A787B1801321A701623FA181523FB1875
:1023F00012781B789A42BDD300E0C046044B0022FD
:102400001A761723FB181B781800BD4607B0F0BDDD
:10241000B803002050C300000020024080B582B005
:1024200000AFFB1D00221A700C4B1B698022134069
:102430000DD00A4B0A4A5A60084B0A4A5A60074BA9
:102440001B698022134002D0FB1D01221A70FB1D64
:102450001B781800BD4602B080BDC0460020024077
:1024600023016745AB89EFCD80B500AF044B1A69F6
:10247000034B80210A431A6100231800BD4680BD2A
:102480000020024080B500AF084B1A6980239B00F2
:10249000134007D1054B064A9A60044B054A9A60DF
:1024A000002300E001231800BD4680BD002002404B
:1024B00023016745AB89EFCD80B500AF044B1A69A6
:1024C000034B04490A401A6100231800BD4680BD31
:1024D00000200240FFFDFFFF80B500AF074B1A69E7
:1024E000064B802189010A431A61054B180000F050
:1024F00025F803001800BD4680BDC04600200240FC
:1025000050C3000080B582B000AF78600A00BB1CE9
:102510001A80084B0022DA61074B1A69064B012129
:102520000A431A617B68BA1C12881A80C046BD46ED
:1025300002B080BDB80300200020024080B584B006
:1025400000AF7860FFF7DEF90300FB600FE07B6807
:1025500001330CD07B68002B07D0FFF7D3F90200C2
:10256000FB68D31A7A689A4201D203231FE0124B08
:10257000DB6801221340012BE9D00F4BDB682022DE
:102580001340202B02D10C4B2022DA600A4BDB686F
:1025900010221340102B05D0074BDB680422134098
:1025A000042B03D100F00AF8012300E000231800F7
:1025B000BD4604B080BDC0460020024080B582B058
:1025C00000AF00237B60134BDB6810221340102BFD
:1025D00009D1114BDB6902221A430F4BDA617B6888
:1025E000102213437B600B4BDB6804221340042B47
:1025F00009D1094BDB6901221A43074BDA617B6879
:10260000042213437B60034B7A68DA60C046BD4600
:1026100002B080BD00200240B8030020B0B584B0F5
:1026200000AF786039600F23FB1801221A70002375
:10263000BB60324B1B7E012B01D102235AE02F4B92
:1026400001221A767B681B68012B16D12C4B1800CF
:10265000FFF774FF031E47D100F052F90F23FC1857
:10266000274B1800FFF76AFF03002370254B1A69F8
:10267000244B04218A431A6136E0214B1800FFF7EE
:102680005DFF031E30D13B68012252421A607B6815
:102690005B68BB601FE0BB68180000F009FC0F25F9
:1026A0007C19174B1800FFF749FF03002370154BE7
:1026B0001A69144B02218A431A617B191B78002B7B
:1026C00003D03B68BA681A600EE0BB688022120132
:1026D00094466344BB607B689B68DA027B685B68F6
:1026E000D318BA689A42D6D3044B00221A760F2325
:1026F000FB181B781800BD4604B0B0BDB80300201D
:1027000050C300000020024090B583B000AFBB1D55
:10271000AA221A70FB1D01221A7000F0A1FB020010
:10272000BB1D1A70FC1D1C4B1800FFF707FF0300B0
:102730002370FB1D1B78002B27D1184B0022DA6178
:10274000174B1A69164B20210A431A61144B1A6958
:10275000134B40210A431A61FC1D0F4B1800FFF771
:10276000EDFE030023700E4B1A690D4B20218A43A6
:102770001A61FB1D1B78002B07D1FC1DBB1D1B78AC
:10278000180000F07FFA03002370FB1D1B7818006F
:10279000BD4603B090BDC04650C30000B803002042
:1027A00000200240B0B584B000AF78600F23FB1862
:1027B00001221A70434B1B7E012B01D102237DE0C5
:1027C000404B01221A767B681B680122134021D0FE
:1027D0007B685B68012B09D17B689B680F22BC1862
:1027E000180000F0A5F80300237008E07B689B68E0
:1027F0000F22BC18180000F071F9030023700F219C
:102800007B181B78002B05D02E4B00221A767B18E4
:102810001B7853E07B681B680222134013D07B684F
:102820001B7B0F257C19180000F02CFA0300237085
:1028300029007B181B78002B05D0224B00221A762A
:102840007B181B783AE07B681B680422134013D086
:102850007B685B7B0F257C19180000F073FA03007E
:10286000237029007B181B78002B05D0154B002204
:102870001A767B181B7821E07B681B6808221340BE
:1028800016D07B681A697B681B7D0F257C1919009F
:10289000100000F09BFA0300237029007B181B78BE
:1028A000002B05D0074B00221A767B181B7805E019
:1028B000044B00221A760F23FB181B781800BD4624
:1028C00004B0B0BDB803002080B582B000AF78601E
:1028D0007B6807221A6000F0B9FA02007B689A60F0
:1028E00000F0BEFA0300DAB27B681A7300F0D2FA85
:1028F00003001A007B685A73C046BD4602B080BD13
:1029000080B500AF084B0022DA61084B1A69074B0B
:1029100004210A431A61054B1A69044B40210A43FA
:102920001A61C046BD4680BDB803002000200240A9
:10293000F0B587B000AF786017243B1900221A70F9
:102940001426BB19012252421A8012257B1901223A
:1029500052421A801023FB18012252421A800E2282
:10296000BB18012252421A8000F070FA02007B6804
:10297000DB4313407B607B689AB2BB19FF210A409E
:102980001A807B681B0A9AB27B19FF210A401A80C1
:102990007B681B0C9AB21023FB18FF210A401A8097
:1029A0007B681A0E0E23FB181A8025003C19474B32
:1029B0001800FFF7C3FD030023707B191B78002B61
:1029C00000D07BE0424B0022DA617C19FFF79CFECD
:1029D0000300237028007B191B78002B00D06DE0CA
:1029E0003C4B1A693B4B10210A431A61BB191B88E7
:1029F000FF2B0FD0384B1B899BB23749BA1912886D
:102A000013409BB20B813C18304B1800FFF796FD2A
:102A10000300237017203B181B78002B14D11222BF
:102A2000BB181B88FF2B0FD02B4B5B899BB22A490D
:102A3000BA18128813409BB24B813C18234B1800E4
:102A4000FFF77CFD0300237017203B181B78002B39
:102A500014D11022BB181B88FF2B0FD01E4B9B8953
:102A60009BB21D49BA18128813409BB28B813C1847
:102A7000164B1800FFF762FD0300237017203B1868
:102A80001B78002B14D10E22BB181B88FF2B0FD0F4
:102A9000114BDB899BB21049BA18128813409BB2C4
:102AA000CB813C18094B1800FFF748FD0300237049
:102AB000084B1A69074B10218A431A611723FB1828
:102AC0001B781800BD4607B0F0BDC04650C30000DB
:102AD000B80300200020024000F8FF1FF0B587B0C7
:102AE00000AF786017243B1900221A701426BB1916
:102AF000012252421A8012257B19012252421A8069
:102B00001023FB18012252421A800E22BB18012208
:102B100052421A8000F09AF902007B6813437B60EE
:102B20007B689AB2BB19FF210A401A807B681B0A96
:102B30009AB27B19FF210A401A807B681B0C9AB25B
:102B40001023FB18FF210A401A807B681A0E0E23FF
:102B5000FB181A8025003C19464B1800FFF7EEFCC5
:102B6000030023707B191B78002B00D07BE0424BC5
:102B70000022DA617C19FFF7C7FD030023702800EB
:102B80007B191B78002B00D06DE03C4B1A693B4B46
:102B900010210A431A61BB191B88FF2B0FD0384B39
:102BA0001B899BB23649BA19128813409BB20B811C
:102BB0003C18304B1800FFF7C1FC030023701720AE
:102BC0003B181B78002B14D11222BB181B88FF2B3B
:102BD0000FD02B4B5B899BB22949BA18128813403E
:102BE0009BB24B813C18234B1800FFF7A7FC030056
:102BF000237017203B181B78002B14D11022BB1810
:102C00001B88FF2B0FD01E4B9B899BB21C49BA1807
:102C1000128813409BB28B813C18164B1800FFF7AB
:102C20008DFC0300237017203B181B78002B14D158
:102C30000E22BB181B88FF2B0FD0114BDB899BB2D8
:102C40000F49BA18128813409BB2CB813C18094B2C
:102C50001800FFF773FC03002370084B1A69074B39
:102C600010218A431A611723FB181B781800BD46F0
:102C700007B0F0BD50C30000B803002000200240A0
:102C800000F8FF1FB0B584B000AF0200FB1D1A7042
:102C90000F257B1900221A707C19264B1800FFF7AC
:102CA0004DFC0300237028003B181B78002B39D102
:102CB000214B0022DA61214B1A69204B20210A4363
:102CC0001A611E4B1A691D4B40210A431A61050007
:102CD0003C18184B1800FFF731FC03002370174B0A
:102CE0001A69164B20218A431A6128003B181B7869
:102CF000002B17D1114B1A69104B10210A431A618E
:102D00000F4AFB1D1B789BB213803C18094B18001F
:102D1000FFF714FC03002370084B1A69074B1021BE
:102D20008A431A610F23FB181B781800BD4604B0B4
:102D3000B0BDC04650C30000B803002000200240D0
:102D400000F8FF1FB0B584B000AF0200FB1D1A7081
:102D50000F257B1900221A707C19184B1800FFF7F9
:102D6000EDFB0300237028003B181B78002B1DD1BE
:102D7000134B0022DA61134B1A69124B10210A43DC
:102D80001A61FB1D1B78782252421343DAB20E4BB4
:102D90005A803C18094B1800FFF7D0FB0300237042
:102DA000084B1A69074B10218A431A610F23FB183D
:102DB0001B781800BD4604B0B0BDC04650C300002B
:102DC000B80300200020024000F8FF1FB0B584B017
:102DD00000AF78600A00FB1C1A700F257B190122D6
:102DE0001A707C19164B1800FFF7A8FB030023701C
:102DF00028003B181B78002B1AD1124B0022DA61F5
:102E0000114B1A69104B10210A431A617B68FA1C96
:102E1000127892B21A803C18094B1800FFF78EFB0B
:102E200003002370084B1A69074B10218A431A616B
:102E30000F23FB181B781800BD4604B0B0BDC04678
:102E400050C30000B80300200020024080B500AF4E
:102E5000024B1B6A1800BD4680BDC04600200240E0
:102E600080B582B000AF0A4BDB69062213407B605D
:102E70007B68002B01D1AA2306E07B680422134063
:102E800001D0CC2300E0BB231800BD4602B080BDBA
:102E90000020024080B500AF044BDB691B0ADBB2A7
:102EA00077221340DBB21800BD4680BD00200240EF
:102EB00080B582B000AF78600A4B0022DA610A4B1D
:102EC0001A69094B02210A431A61074B7A685A6151
:102ED000054B1A69044B40210A431A61C046BD469E
:102EE00002B080BDB80300200020024080B586B04B
:102EF00000AF7860396000237B6155E13B681B6857
:102F000001217A6991400A001340FB60FB68002BA5
:102F100000D146E13B685B6803221340012B05D0DA
:102F20003B685B6803221340022B30D17B689B68AF
:102F30003B617B695B0003229A401300DA433B69E3
:102F400013403B613B68DA687B695B009A40130081
:102F50003A6913433B617B683A699A607B685B68B6
:102F60003B6101227B699A401300DA433B691340BD
:102F70003B613B685B681B0901221A407B699A40F0
:102F800013003A6913433B617B683A695A603B68B6
:102F90005B6803221340032B17D07B68DB683B611F
:102FA0007B695B0003229A401300DA433B691340BC
:102FB0003B613B689A687B695B009A4013003A6901
:102FC00013433B617B683A69DA603B685B680322C4
:102FD0001340022B23D17B69DA087B680832920008
:102FE000D3583B617B69072213409B000F229A4014
:102FF0001300DA433B6913403B613B681A697B6904
:1030000007210B409B009A4013003A6913433B6130
:103010007B69DA087B68083292003969D1507B6895
:103020001B683B617B695B0003229A401300DA4313
:103030003B6913403B613B685B6803221A407B6934
:103040005B009A4013003A6913433B617B683A691D
:103050001A603B685A68C0239B02134000D1A0E06D
:10306000574B9A69564B01210A439A61544B9B690D
:1030700001221340BB60BB68524A7B699B08023344
:103080009B009B583B617B69032213409B000F22EE
:103090009A401300DA433B6913403B617A689023FE
:1030A000DB059A4219D07B68474A934213D07B686C
:1030B000464A93420DD07B68454A934207D07B68CD
:1030C000444A934201D1042308E0052306E0032388
:1030D00004E0022302E0012300E000237A690321D7
:1030E0000A40920093403A6913433B6135497B693A
:1030F0009B0802339B003A695A50374B9B683B61EF
:10310000FB68DA433B6913403B613B685A688023A4
:103110005B03134003D03A69FB6813433B612E4BBA
:103120003A699A602C4BDB683B61FB68DA433B6988
:1031300013403B613B685A6880239B03134003D0D4
:103140003A69FB6813433B61234B3A69DA60224BCF
:103150005B683B61FB68DA433B6913403B613B685A
:103160005A6880239B02134003D03A69FB681343DB
:103170003B61194B3A695A60174B1B683B61FB680E
:10318000DA433B6913403B613B685A6880235B022A
:10319000134003D03A69FB6813433B610E4B3A6915
:1031A0001A607B6901337B613B681A687B69DA408E
:1031B000131E00D0A2E6C046C046BD4606B080BD84
:1031C00000100240000001400004004800080048D0
:1031D000000C0048001000480004014080B584B095
:1031E00000AF78600A00BB1C1A807B681B69BA1CA0
:1031F0001288134004D00F23FB1801221A7003E039
:103200000F23FB1800221A700F23FB181B781800DD
:10321000BD4604B080BD80B582B000AF78600800C4
:103220001100BB1C021C1A807B1C0A1C1A707B1C20
:103230001B78002B04D0BB1C1A887B689A6103E0C2
:10324000BB1C1A887B689A62C046BD4602B080BD2E
:1032500080B588B000AF78607B68002B02D1012375
:1032600000F076FB7B681B680122134000D18EE0E2
:10327000C54B5B680C221340042B0ED0C24B5B681D
:103280000C221340082B17D1BF4B5A68C0235B0296
:103290001A4080235B029A420ED1BB4B1A688023EE
:1032A0009B02134000D171E07B685B68002B00D06B
:1032B0006CE0012300F04CFB7B685B68012B07D1BD
:1032C000B14B1A68B04B802149020A431A602FE0C3
:1032D0007B685B68002B0CD1AB4B1A68AA4BAB49DF
:1032E0000A401A60A84B1A68A74BA9490A401A60FD
:1032F0001EE07B685B68052B0ED1A34B1A68A24BBE
:103300008021C9020A431A609F4B1A689E4B802194
:1033100049020A431A600BE09B4B1A689A4B9B497F
:103320000A401A60984B1A68974B99490A401A60EC
:103330007B685B68002B14D0FEF7E4FA0300BB61E6
:1033400008E0FEF7DFFA0200BB69D31A642B01D94B
:103350000323FDE28C4B1A6880239B021340F0D0BC
:1033600015E0FEF7CFFA0300BB6108E0FEF7CAFAEA
:103370000200BB69D31A642B01D90323E8E2824B14
:103380001A6880239B021340F0D100E0C0467B689E
:103390001B680222134000D16CE07B4B5B680C225F
:1033A00013400ED0784B5B680C221340082B1FD1C2
:1033B000754B5A68C0235B021A4080231B029A4255
:1033C00016D1714B1B680222134005D07B68DB6865
:1033D000012B01D00123BBE26B4B1B68F822934306
:1033E00019007B681B69DA00674B0A431A6041E0E9
:1033F0007B68DB68002B24D0634B1A68624B012189
:103400000A431A60FEF77EFA0300BB6108E0FEF78C
:1034100079FA0200BB69D31A022B01D9032397E280
:10342000594B1B6802221340F1D0574B1B68F822FE
:10343000934319007B681B69DA00534B0A431A60F7
:1034400018E0514B1A68504B01218A431A60FEF76D
:1034500059FA0300BB6108E0FEF754FA0200BB69A9
:10346000D31A022B01D9032372E2474B1B680222B5
:103470001340F1D17B681B680822134036D07B686B
:10348000DB69002B19D0404B5A6A3F4B01210A439C
:103490005A62FEF737FA0300BB6108E0FEF732FA22
:1034A0000200BB69D31A022B01D9032350E2364B29
:1034B0005B6A02221340F1D018E0334B5A6A324B58
:1034C00001218A435A62FEF71DFA0300BB6108E03E
:1034D000FEF718FA0200BB69D31A022B01D90323A5
:1034E00036E2294B5B6A02221340F1D17B681B68EC
:1034F0000422134000D1B5E01F203B1800221A70AF
:10350000214BDA6980235B05134010D11E4BDA6929
:103510001D4B802149050A43DA611B4BDA69802380
:103520005B051340FB60FB683B1801221A70194BC6
:103530001A6880235B0013401AD1164B1A68154B8A
:10354000802149000A431A60FEF7DCF90300BB61E1
:1035500008E0FEF7D7F90200BB69D31A642B01D942
:103560000323F5E10B4B1A6880235B001340F0D076
:103570007B689B68012B0FD1034B1A6A024B012118
:103580000A431A6236E0C04600100240FFFFFEFF09
:10359000FFFFFBFF007000407B689B68002B0CD195
:1035A000CA4B1A6AC94B01218A431A62C74B1A6A6D
:1035B000C64B04218A431A621CE07B689B68052B7A
:1035C0000CD1C24B1A6AC14B04210A431A62BF4B89
:1035D0001A6ABE4B01210A431A620BE0BB4B1A6AFE
:1035E000BA4B01218A431A62B84B1A6AB74B0421BD
:1035F0008A431A627B689B68002B14D0FEF782F91D
:103600000300BB6109E0FEF77DF90200BB69D31A34
:10361000AF4A934201D903239AE1AC4B1B6A0222C1
:103620001340F0D013E0FEF76DF90300BB6109E031
:10363000FEF768F90200BB69D31AA54A934201D983
:10364000032385E1A14B1B6A02221340F0D11F2303
:10365000FB181B78012B05D19C4BDA699B4B9D49CC
:103660000A40DA617B681B681022134063D07B68D4
:103670005B69012B2AD1954B5A6B944B04210A4369
:103680005A63924B5A6B914B01210A435A63FEF7DE
:1036900039F90300BB6108E0FEF734F90200BB69A9
:1036A000D31A022B01D9032352E1884B5B6B022210
:1036B0001340F1D0854B5B6BF822934319007B6874
:1036C0009B69DA00814B0A435A6334E07B685B698B
:1036D000053311D17D4B5A6B7C4B04218A435A63CD
:1036E0007A4B5B6BF822934319007B689B69DA0085
:1036F000764B0A435A631EE0744B5A6B734B04219A
:103700000A435A63714B5A6B704B01218A435A63C7
:10371000FEF7F8F80300BB6108E0FEF7F3F80200DB
:10372000BB69D31A022B01D9032311E1674B5B6BF1
:1037300002221340F1D17B681B68202213405CD029
:10374000624B5B680C2213400C2B0ED05F4B5B6806
:103750000C221340082B14D15C4B5A68C0235B0227
:103760001A40C0235B029A420BD1584B5A6B8023FC
:103770009B02134040D07B681B6A012B3CD0012385
:10378000E6E07B681B6A002B1BD0504B5A6B4F4BFB
:10379000802149020A435A63FEF7B4F80300BB6173
:1037A00008E0FEF7AFF80200BB69D31A022B01D97B
:1037B0000323CDE0454B5A6B80239B021340F0D08E
:1037C0001BE0424B5A6B414B43490A405A63FEF798
:1037D00099F80300BB6108E0FEF794F80200BB69AA
:1037E000D31A022B01D90323B2E0384B5A6B802342
:1037F0009B021340F0D100E0C0467B685B6A002B5F
:1038000000D1A4E0314B5B680C221340082B00D19F
:1038100078E07B685B6A022B4CD12C4B1A682B4BEF
:103820002E490A401A60FEF76DF80300BB6108E0FC
:10383000FEF768F80200BB69D31A022B01D90323F3
:1038400086E0224B1A6880239B041340F0D11F4B63
:10385000DB6A0F22934319007B681A6B1B4B0A43E8
:10386000DA621A4B5B681E4A134019007B68DA6AF9
:103870007B689B6A1A43154B0A435A60134B1A68BC
:10388000124B802149040A431A60FEF73BF80300FB
:10389000BB6108E0FEF736F80200BB69D31A022BC1
:1038A00001D9032354E0094B1A6880239B04134079
:1038B000F0D04CE0054B1A68044B08490A401A60E6
:1038C000FEF720F80300BB6115E0C046001002407F
:1038D00088130000FFFFFFEFFFFFFEFFFFFFFFFE6B
:1038E000FF7FC2FFFEF70EF80200BB69D31A022B5E
:1038F00001D903232CE0184B1A6880239B04134042
:10390000F0D124E07B685B6A012B01D101231FE029
:10391000114B5B687B61104BDB6A3B617A69C023AA
:103920005B021A407B689B6A9A420ED13B690F2268
:103930001A407B681B6B9A4207D17A69F0239B037C
:103940001A407B68DB6A9A4201D0012300E0002321
:103950001800BD4608B080BD0010024080B584B09C
:1039600000AF786039607B68002B01D10123BFE094
:10397000614B1B68012213403A689A4211D95E4B91
:103980001B680122934319005B4B3A680A431A6093
:10399000594B1B68012213403A689A4201D0012317
:1039A000A6E07B681B680222134015D07B681B6869
:1039B0000422134006D0514B5A68504BE021C900F5
:1039C0000A435A604D4B5B68F022934319007B68B1
:1039D0009A684A4B0A435A607B681B68012213406D
:1039E0004CD07B685B68012B07D1444B1A6880235D
:1039F0009B02134020D101237AE07B685B68022B95
:103A000007D13E4B1A6880239B04134014D1012335
:103A10006EE07B685B68032B07D1384B5A6B8023C1
:103A20009B02134008D1012362E0344B1B68022241
:103A3000134001D101235BE0304B5B6803229343C9
:103A400019007B685A682D4B0A435A60FDF75AFFEC
:103A50000300FB6009E0FDF755FF0200FB68D31A85
:103A6000274A934201D9032342E0244B5B680C228E
:103A70001A407B685B689B009A42ECD11E4B1B6826
:103A8000012213403A689A4211D21B4B1B68012253
:103A900093431900184B3A680A431A60164B1B6887
:103AA000012213403A689A4201D0012320E07B684A
:103AB0001B680422134009D0104B5B68114A134065
:103AC00019007B68DA680D4B0A435A6000F020F851
:103AD00001000A4B5B681B090F2213400A4AD35CA2
:103AE0000A00DA40094B1A600020FDF7C5FE0023EA
:103AF0001800BD4604B080BD002002400010024006
:103B000088130000FFF8FFFF805800080C00002019
:103B100080B586B000AF0023FB600023BB600023AC
:103B20007B6100237B6000233B612D4B5B68FB6066
:103B3000FB680C2213400C2B46D048D8042B02D033
:103B4000082B03D043E0274B3B6143E0FB689B0C11
:103B50000F221340244AD35C7B60214BDB6A0F2287
:103B60001340224AD35CBB60FA68C0235B021A4050
:103B700080235B029A4209D1B9681A48FCF7D6FA49
:103B800003001A007B6853437B611AE0FA68C02384
:103B90005B021A40C0235B029A4209D1B9681448FB
:103BA000FCF7C4FA03001A007B6853437B6108E00A
:103BB000B9680C48FCF7BAFA03001A007B68534353
:103BC0007B617B693B6105E0094B3B6102E0054B92
:103BD0003B61C0463B691800BD4606B080BDC0468B
:103BE0000010024000127A0098580008A8580008F7
:103BF000006CDC0280B500AF024B1B681800BD46AC
:103C000080BDC0460C00002080B500AFFFF7F2FF7A
:103C10000100064B5B681B0A07221340044AD35C71
:103C2000D9400B001800BD4680BDC04600100240C0
:103C30009058000880B586B000AF786000233B61E3
:103C40000023FB607B681A6880235B02134000D16D
:103C50008EE017203B1800221A706E4BDA69802321
:103C60005B05134010D16B4BDA696A4B8021490523
:103C70000A43DA61674BDA6980235B051340BB6056
:103C8000BB683B1801221A70634B1A6880235B00E3
:103C900013401AD1604B1A685F4B802149000A43D8
:103CA0001A60FDF72FFE03003B6108E0FDF72AFED6
:103CB00002003B69D31A642B01D90323A6E0564BBB
:103CC0001A6880235B001340F0D0524B1A6AC0235D
:103CD0009B001340FB60FB68002B34D07B685A6864
:103CE000C0239B001340FA689A422CD0494B1B6AB0
:103CF0004A4A1340FB60474B1A6A464B80214902EF
:103D00000A431A62434B1A6A424B45490A401A62F7
:103D1000404BFA681A62FB680122134013D0FDF78A
:103D2000F1FD03003B6109E0FDF7ECFD02003B699A
:103D3000D31A3C4A934201D9032367E0354B1B6AEF
:103D400002221340F0D0334B1B6A344A134019004F
:103D50007B685A682F4B0A431A621723FB181B789B
:103D6000012B05D12B4BDA692A4B2F490A40DA6126
:103D70007B681B680122134009D0264B1B6B032272
:103D8000934319007B689A68224B0A431A637B6845
:103D90001B680222134009D01E4B1B6B234A1340A1
:103DA00019007B68DA681B4B0A431A637B681B683F
:103DB0002022134009D0174B1B6B1022934319008C
:103DC0007B681A69134B0A431A637B681A6880235D
:103DD0009B02134009D00F4B1B6B802293431900A9
:103DE0007B689A690B4B0A431A637B681A688023C5
:103DF000DB00134009D0074B1B6B40229343190093
:103E00007B685A69034B0A431A6300231800BD46B6
:103E100006B080BD0010024000700040FFFCFFFFB4
:103E2000FFFFFEFF88130000FFFFFFEFFFFFFCFF17
:103E300080B582B000AF78607B68002B01D1012390
:103E400044E07B68DB6F002B07D17B687822002180
:103E500099547B681800FDF799FB7B682422DA6788
:103E60007B681B681A687B681B6801218A431A609B
:103E70007B685B6A002B03D07B68180000F03CFB7A
:103E80007B68180000F0B0F90300012B01D1012379
:103E90001CE07B681B685A687B681B680D490A40F8
:103EA0005A607B681B689A687B681B682A218A4372
:103EB0009A607B681B681A687B681B6801210A434B
:103EC0001A607B68180000F0CBFB03001800BD46A9
:103ED00002B080BDFFB7FFFF80B58AB002AFF860C7
:103EE000B9603B60BB1D1A80FB68DB6F202B00D0E4
:103EF0008CE0BB68002B03D0BB1D1B88002B01D1BD
:103F0000012384E0FB689A6880235B019A4209D10F
:103F1000FB681B69002B05D1BB680122134001D04F
:103F2000012374E0FB68842200219950FB68212260
:103F3000DA67FDF7E7FC03007B61FB68BA1D5021DF
:103F400012885A52FB68BA1D522112885A52FB68D5
:103F50009A6880235B019A4208D1FB681B69002B99
:103F600004D10023FB61BB68BB6103E0BB68FB615C
:103F70000023BB612FE07A69F8683B680093130067
:103F80000022802100F014FC031E04D0FB682022D4
:103F9000DA6703233BE0FB69002B0BD1BB691A886E
:103FA000FB681B68D205D20D92B21A85BB69023339
:103FB000BB6107E0FB691A78FB681B681A85FB691F
:103FC0000133FB61FB6852229B5A9BB2013B99B2C1
:103FD000FB6852229952FB6852229B5A9BB2002BDB
:103FE000C9D17A69F8683B68009313000022402128
:103FF00000F0DEFB031E04D0FB682022DA670323F7
:1040000005E0FB682022DA67002300E002231800A5
:10401000BD4608B080BD000080B58AB002AFF86030
:10402000B9603B60BB1D1A80FB6880229B58202B27
:1040300000D0D1E0BB68002B03D0BB1D1B88002B38
:1040400001D10123C9E0FB689A6880235B019A4291
:1040500009D1FB681B69002B05D1BB680122134005
:1040600001D00123B9E0FB68842200219950FB684C
:10407000802222219950FB6800221A66FDF742FC3B
:1040800003007B61FB68BA1D582112885A52FB68F5
:10409000BA1D5A2112885A52FB689A6880235B0124
:1040A0009A420DD1FB681B69002B04D1FB685C228E
:1040B0004C4999522EE0FB685C22FF21995229E07D
:1040C000FB689B68002B0DD1FB681B69002B04D19A
:1040D000FB685C22FF2199521CE0FB685C227F2177
:1040E000995217E0FB689A6880235B059A420DD1CC
:1040F000FB681B69002B04D1FB685C227F2199526D
:1041000008E0FB685C223F21995203E0FB685C22D7
:10411000002199521223FB18FA685C21525A1A8026
:10412000FB689A6880235B019A4208D1FB681B698F
:10413000002B04D10023FB61BB68BB6103E0BB68BB
:10414000FB610023BB613BE07A69F8683B68009340
:1041500013000022202100F02BFB031E05D0FB687A
:10416000802220219950032337E0FB69002B0ED1D8
:10417000FB681B689B8C9BB21222BA1812881340F2
:104180009AB2BB691A80BB690233BB610FE0FB685E
:104190001B689B8C9BB2DBB21222BA181288D2B277
:1041A0001340DAB2FB691A70FB690133FB61FB68EB
:1041B0005A229B5A9BB2013B99B2FB685A229952F0
:1041C000FB685A229B5A9BB2002BBDD1FB68802210
:1041D00020219950002300E002231800BD4608B0BA
:1041E00080BDC046FF01000080B588B000AF786098
:1041F0001E23FB1800221A707B689A687B681B6973
:104200001A437B685B691A437B68DB6913437B61F4
:104210007B681B681B68AF4A134019007B681B68EA
:104220007A690A431A607B681B685B68AA4A134074
:1042300019007B68DA687B681B680A435A607B68F0
:104240009B697B617B681B6A7A6913437B617B682E
:104250001B689B68A14A134019007B681B687A6938
:104260000A439A607B681B689D4A934227D19D4B05
:104270001B6B03221340032B0DD01BD8022B14D031
:1042800018D8002B02D0012B0AD013E01F23FB18F3
:1042900000221A7065E01F23FB1802221A7060E0EA
:1042A0001F23FB1804221A705BE01F23FB1808224F
:1042B0001A7056E01F23FB1810221A7051E07B6819
:1042C0001B68894A934234D1864B1A6BC0239B02E8
:1042D0001340C0229202934217D0C022920293420E
:1042E00022D880229202934219D0802292029342D5
:1042F0001AD8002B04D08022520293420AD013E035
:104300001F23FB1800221A702BE01F23FB18022228
:104310001A7026E01F23FB1804221A7021E01F23C5
:10432000FB1808221A701CE01F23FB1810221A70B9
:1043300017E07B681B686D4A934204D11F23FB186A
:1043400000221A700DE07B681B68694A934204D111
:104350001F23FB1800221A7003E01F23FB181022F2
:104360001A707B68DA6980231B029A425CD11F2392
:10437000FB181B78082B15D018DC042B0DD015DC8E
:10438000002B02D0022B05D010E0FFF73DFC03000C
:10439000BB6112E0574BBB610FE0FFF7B9FB0300B5
:1043A000BB610AE080231B02BB6106E00023BB6106
:1043B0001E23FB1801221A70C046BB69002B00D1D6
:1043C0007AE0BB695A007B685B685B08D2187B683F
:1043D0005B6819001000FBF7A9FE03003B613B6915
:1043E0000F2B1CD93A6980235B029A4217D23B6992
:1043F0009AB20E203B180F218A431A803B695B0852
:104400009BB20722134099B23B183A1812880A430C
:104410001A807B681B683A181288DA604CE01E2309
:10442000FB1801221A7047E01F23FB181B78082B8A
:1044300015D018DC042B0DD015DC002B02D0022B7C
:1044400005D010E0FFF7E0FB0300BB6112E0294B51
:10445000BB610FE0FFF75CFB0300BB610AE0802358
:104460001B02BB6106E00023BB611E23FB18012277
:104470001A70C046BB69002B1ED07B685B685A0867
:10448000BB69D2187B685B6819001000FBF74EFE11
:1044900003003B613B690F2B0AD93A6980235B0219
:1044A0009A4205D23B699AB27B681B68DA6003E0E6
:1044B0001E23FB1801221A707B6800229A667B6813
:1044C0000022DA661E23FB181B781800BD4608B0D0
:1044D00080BDC046F369FFEFFFCFFFFFFFF4FFFF92
:1044E00000380140001002400044004000480040F5
:1044F000004C004000127A0080B582B000AF7860B6
:104500007B685B6A082213400BD07B681B685B6882
:104510004A4A134019007B685A6B7B681B680A4340
:104520005A607B685B6A012213400BD07B681B6872
:104530005B68434A134019007B689A6A7B681B6872
:104540000A435A607B685B6A022213400BD07B6887
:104550001B685B683B4A134019007B68DA6A7B681A
:104560001B680A435A607B685B6A042213400BD0C5
:104570007B681B685B68344A134019007B681A6BC0
:104580007B681B680A435A607B685B6A1022134091
:104590000BD07B681B689B682C4A134019007B6812
:1045A0009A6B7B681B680A439A607B685B6A20226F
:1045B00013400BD07B681B689B68254A1340190089
:1045C0007B68DA6B7B681B680A439A607B685B6A6E
:1045D000402213401DD07B681B685B681D4A134056
:1045E00019007B681A6C7B681B680A435A607B68F9
:1045F0001A6C80235B039A420BD17B681B685B6853
:10460000154A134019007B685A6C7B681B680A4383
:104610005A607B685B6A802213400BD07B681B6802
:104620005B680E4A134019007B689A6C7B681B68B4
:104630000A435A60C046BD4602B080BDFF7FFFFFFF
:10464000FFFFFDFFFFFFFEFFFFFFFBFFFFEFFFFF91
:10465000FFDFFFFFFFFFEFFFFFFF9FFFFFFFF7FF02
:1046600080B592B002AF78607B68842200219950B7
:10467000FDF748F90300FB637B681B681B68082291
:104680001340082B2CD1FB6B802291037868464A9B
:104690000092002200F08CF8031E21D0EFF310836B
:1046A0007B627B6ABB630123BB62BB6A83F31088B6
:1046B000C0467B681B681A687B681B6880218A4338
:1046C0001A60BB6BFB62FB6A83F31088C0467B6891
:1046D0002022DA677B6878220021995403235FE067
:1046E0007B681B681B6804221340042B46D1FB6BBC
:1046F0008022D10378682C4A0092002200F058F8FA
:10470000031E3BD0EFF31083FB60FB687B63012348
:104710003B613B6983F31088C0467B681B681A685D
:104720007B681B6821490A401A607B6B7B617B694F
:1047300083F31088C046EFF31083BB61BB693B6312
:104740000123FB61FB6983F31088C0467B681B680B
:104750009A687B681B6801218A439A603B6B3B62C5
:104760003B6A83F31088C0467B68802220219950E1
:104770007B68782200219954032311E07B68202272
:10478000DA677B688022202199507B6800221A66B4
:104790007B6800225A667B687822002199540023A6
:1047A0001800BD4610B080BDFFFFFF01DFFEFFFF18
:1047B00080B584B000AFF860B9603B60FB1D1A7033
:1047C00051E0BB6901334ED0FDF79CF802003B6815
:1047D000D31ABA699A4202D3BB69002B01D10323D1
:1047E00051E0FB681B681B68042213403BD0BB6888
:1047F000802B38D0BB68402B35D0FB681B68DB6949
:1048000008221340082B11D1FB681B6808221A628A
:10481000FB68180000F03CF8FB68842208219950DE
:10482000FB6878220021995401232CE0FB681B6867
:10483000DA6980231B011A4080231B019A4212D19E
:10484000FB681B68802212011A62FB68180000F0E6
:104850001FF8FB68842220219950FB6878220021F0
:10486000995403230FE0FB681B68DB69BA681340A7
:10487000BA68D31A5A425341DBB21A00FB1D1B78A7
:104880009A429ED000231800BD4604B080BD0000AF
:1048900080B58EB000AF7860EFF310837B617B69E9
:1048A0007B630123BB61BB6983F31088C0467B68CF
:1048B0001B681A687B681B6826490A401A607B6B74
:1048C000FB61FB6983F31088C046EFF310833B6202
:1048D0003B6A3B6301237B627B6A83F31088C0469B
:1048E0007B681B689A687B681B6801218A439A6011
:1048F0003B6BBB62BB6A83F31088C0467B681B6E50
:10490000012B18D1EFF31083BB60BB68FB6201235E
:10491000FB60FB6883F31088C0467B681B681A68DD
:104920007B681B6810218A431A60FB6A3B613B6904
:1049300083F31088C0467B688022202199507B68D1
:1049400000221A667B6800229A66C046BD460EB0F9
:1049500080BDC046DFFEFFFF00B59BB00091049113
:1049600006490591029106490391694600F0B0F9A4
:104970000022009B1A701BB000BDC046FFFFFF7FE6
:104980000802FFFF10B5044C13000A000100206864
:10499000FFF7E2FF10BDC046180000200300821898
:1049A000934200D1704719700133F9E7014B186841
:1049B0007047C0461800002070B500260C4C0D4D05
:1049C000641BA410A64209D1002600F065FC0A4C25
:1049D0000A4D641BA410A64205D170BDB300EB586C
:1049E00098470136EEE7B300EB5898470136F2E7F7
:1049F000EC580008EC580008F0580008EC58000883
:104A000070477047002310B59A4200D110BDCC5CAE
:104A1000C4540133F8E7000070B505000C1E10D037
:104A2000043C2368002B00DAE418280000F0E0F8CA
:104A30001D4A1368002B05D163601460280000F044
:104A4000DFF870BDA34208D9206821188B42F3D14A
:104A500019685B6809182160EEE71A005B68002B93
:104A600001D0A342F9D911685018A0420BD1206897
:104A70000918501811608342E0D118685B6841182A
:104A800011605360DAE7A04202D90C232B60D5E70E
:104A9000206821188B4203D119685B6809182160CE
:104AA00063605460CAE7C0461C05002070B50F4E15
:104AB0000D0031680400002902D100F099FB30603C
:104AC0002900200000F094FB431C03D101256D4216
:104AD000280070BD0323C51C9D43A842F8D0291AA5
:104AE000200000F085FB0130F2D1EFE7180500202F
:104AF000F7B50322CB1C9343083305001F000C2B92
:104B000034D20C27B94233D8280000F071F8374E60
:104B100033681C00002C2FD139002800FFF7C6FF96
:104B20000400431C5FD134680094009B002B4AD1E1
:104B3000002C52D023682800E3180099019300F05C
:104B400057FB019B834248D123682800FF1A390094
:104B5000FFF7ACFF013040D02368DB1923603368D6
:104B60005A68002A33D1009B336019E0002BC9DA60
:104B70000C232B600020FEBD2168C91B20D40B290B
:104B80000AD9E2192760A34204D132606368116038
:104B9000536005E05A60F9E76268A3420ED13260C3
:104BA000280000F02DF8200007220B30231D904331
:104BB000C21A9842DFD01B1AA350DCE75A60EFE715
:104BC00023006468A6E7009C63680093ADE71A00C1
:104BD0005B68A342FBD10023DAE70C2328002B609B
:104BE00000F00EF8C6E70760DAE7C0461C050020B3
:104BF00010B50248FFF704FF10BDC04614050020A1
:104C000010B50248FFF7FDFE10BDC0461405002098
:104C1000F0B58E6885B01F000C000B6802900392FF
:104C2000BE4230D80C21625E9021C9000A4228D0D1
:104C3000032021695B1A0193636943430198DD0FE7
:104C4000ED187B1C1B186D10AB4200D91D005205DE
:104C500028D529000298FFF74BFF061E2CD0019A99
:104C60002169FFF7CFFEA289184B1A408023134316
:104C7000A381019B2661F61826603E006561ED1A4E
:104C8000A560BE4200D93E0032000399206800F0C2
:104C90009BFA0020A3689B1BA36023689B192360D9
:104CA00005B0F0BD2A00029800F0BFFA061EE0D160
:104CB00021690298FFF7B0FE0C230120029A4042BE
:104CC0001360A28934331343A381E9E77FFBFFFF1D
:104CD000F0B5A1B003901D008B890F0016001B06D4
:104CE00011D50B69002B0ED14021FFF701FF386071
:104CF0003861002805D10C23039A1360012040423B
:104D0000CFE040237B61002308AC636120336376EE
:104D10001033A376079535002B78002B01D0252B77
:104D200048D1AB1B0593B5420BD032003900039834
:104D3000FFF76EFF013000D1AEE06369059A9B1862
:104D400063612B78002B00D1A6E0012200235242A0
:104D5000626004A9543252186E1C2360E360A360A1
:104D60001370A365544B052218003178059300F0A9
:104D700051FA751C00281FD12268D30604D553238D
:104D800004A95B1820211970130704D5532304A923
:104D90005B182B21197033782A2B16D0350000218F
:104DA0000A20E3682A786E1C303A092A50D9002973
:104DB00011D117E00135AFE7059B2268C01A012326
:104DC000834013432E002360CCE7079B191D1B680B
:104DD0000791002B01DB0B9304E05B42E3600223AD
:104DE000134323602B782E2B0CD16B782A2B34D1D4
:104DF000079B02351A1D1B680792002B01DA01235D
:104E00005B4209932D4E03223000297800F002FA0C
:104E1000002806D04023801B8340226801351343BD
:104E200023602978062226486E1C217600F0F2F9CC
:104E3000002838D0234B002B22D10722079B0733B1
:104E40009343083307936369049A9B18636162E78D
:104E50004343350001219B18A4E700230A201900D1
:104E6000013563602A786E1C303A092A03D9002B79
:104E7000C8D00991C6E74143350001238918F1E7FD
:104E800007AA009221003A000F4B039800E000BFF0
:104E90000490049B0133D6D1BB890D985B0600D5E5
:104EA0002CE721B0F0BD07AA009221003A00064B82
:104EB000039800F07BF8EBE7B8580008BE580008EC
:104EC000C258000800000000114C0008F7B5160099
:104ED00001938A680B690C000090934200DA13007A
:104EE0002200336043321278002A01D0013333604C
:104EF00023689B0602D53368023333602268062399
:104F000015001D401A4227D0230043331B785A1E38
:104F100093412268920630D4220001990098089D9E
:104F20004332A847013025D00622236800251340CC
:104F3000042B05D13368E568ED1AEB43DB171D4000
:104F4000A3682269934201DD9B1AED180026B54241
:104F500020D1002010E00135E36832689B1AAB4293
:104F6000D2DD2200012301990098089F1932B84729
:104F70000130F0D101204042FEBD3020E118433124
:104F8000087021005A1C45310978A21843320233B7
:104F90001170C1E72200012301990098089F1A327D
:104FA000B8470130E6D00136D1E70000F0B58BB04C
:104FB00006920A0043320793059003920A7E0C0082
:104FC000109B782A09D8622A0BD8002A00D1BCE0AD
:104FD0007B490491582A00D190E0250042352A707F
:104FE00022E0100063381528F7D8FBF795F8160073
:104FF0001F00F6FFF6FFF6FFF6FF1F00F6FFF6FFB5
:10500000F6FFF6FFA10036008000F6FFF6FFB200C3
:10501000F6FF3600F6FFF6FF840025001A684235D9
:10502000111D196013682B700123A0E0186809682E
:10503000021D0D060BD506681A60002E03DA2D231B
:10504000039A764213705E4B0A27049318E00668B1
:105050001A604906F1D536B2EFE70868196840C909
:10506000050602D4400600D5B6B21960544B0A2793
:1050700004936F2A00D1023F2300002243331A70A9
:105080006368A360002B03DB042122688A4322604B
:10509000002E02D1039D002B0CD0039D300039005F
:1050A000FBF7CAF8049B013D5B5C2B7033000600E4
:1050B0009F42F3D9082F09D12368DB0706D5626820
:1050C00023699A4202DC3023013D2B70039B5B1B5A
:1050D0002361079B210000930598069B09AAFFF70F
:1050E000F5FE013048D1012040420BB0F0BD202236
:1050F00009680A432260782232490491210045312F
:105100000A701968226840C9100602D4500600D5FA
:10511000B6B21960D30702D5202313432360002EB3
:1051200001D01027A8E72022236893432360F8E7E3
:105130001A680D68101D4969186013682E0601D59C
:10514000196002E06D06FBD519800023039D2361E1
:10515000BFE71A68111D19601568002128006268F0
:1051600000F058F8002801D0401B6060636823619C
:105170000023039A1370ACE72A0023690699059867
:10518000079DA8470130AED023689B0715D4099B23
:10519000E0689842A9DA1800A7E7220001230699DF
:1051A0000598079E1932B04701309CD00135E3685D
:1051B000099A9B1AAB42F0DCE9E70025F7E7C04605
:1051C000C9580008DA58000810B5884206D80023EC
:1051D0009A4208D0CC5CC4540133F9E78B1898424A
:1051E000F5D2013A00D210BD8B5C8354F9E7000080
:1051F000002370B5064D040008002B60FCF7C2FACE
:10520000431C03D12B68002B00D0236070BDC04627
:1052100010050020C9B28218904201D100207047C9
:1052200003788B42FBD00130F6E7F7B506000C009F
:105230001500002905D11100FFF75AFC04002000D9
:10524000FEBD002A03D1FFF7E7FB0024F7E700F0DB
:105250001BF80700854202D84308AB42EFD3290070
:105260003000FFF745FC01900028EED02A00BD4237
:1052700000D93A0021000198FFF7C4FB210030005B
:10528000FFF7CAFB019CDAE70B1F1B68181F002BF6
:1052900001DA0B58C0187047F8B5C046F8BC08BC16
:1052A0009E467047F8B5C046F8BC08BC9E4670479D
:1052B000424C5F44454255475F4D53473A20426F49
:1052C0006F746C6F6165725F4765745F5665725F7E
:1052D000436D640A00000000424C5F44454255475C
:1052E0005F4D53473A20436865636B73756D207358
:1052F0007563636573730A00424C5F4445425547CA
:105300005F4D53473A20424C5F564552203A202584
:10531000642025237820200A00000000424C5F44CE
:10532000454255475F4D53473A204368656373755F
:105330006D206661696C200A00000000424C5F44E9
:10534000454255475F4D53473A20626F6F746C6F0B
:10535000616465725F6765745F68656C705F636DDB
:1053600064200A00424C5F44454255475F4D534715
:105370003A20436865636B73756D2073756363656D
:1053800073200A00424C5F44454255475F4D5347E6
:105390003A20436865636B73756D206661696C20A4
:1053A0000A000000424C5F44454255475F4D534759
:1053B0003A20626F6F746C6F616465725F676574C9
:1053C0005F6369645F636D64200A0000424C5F4460
:1053D000554245475F4D53473A2053544D3332466B
:1053E00030373220436869702049643A20256420B0
:1053F000252378200A000000424C5F44454255476F
:105400005F4D53473A20626F6F746C6F61646572D1
:105410005F6765745F7264705F636D64200A00008B
:10542000424C5F44454255475F4D53473A205354E1
:105430004D33324630373220524450204C65766529
:105440006C3A20256420252378200A00424C5F44D2
:10545000454255475F4D53473A20626F6F746C6FFA
:10546000646165725F676F5F746F5F616464725FD0
:10547000636D64200A000000424C5F44454255477A
:105480005F4D53473A20474F20416464723A2025CC
:105490002378200A00000000424C5F4445425547F3
:1054A0005F4D53473A20476F696E6720746F204104
:1054B000646472657373200A00000000424C5F440C
:1054C000454255475F4D53473A20476F204164643A
:1054D0007265737320496E76616C6964200A0000FE
:1054E000424C5F44454255475F4D53473A20626FF7
:1054F0006F746C6F616465725F666C6173685F6521
:10550000726173655F636D64200A0000424C5F4402
:10551000454255475F4D53473A20436865636B7377
:10552000756D2073756363657373200A0000000056
:10553000424C5F44454255475F4D53473A20496EC0
:10554000697469616C20536563746F723A202564D5
:10555000204E75626D6572204F66205365636F74CF
:1055600072733A202564200A00000000424C5F4418
:10557000454255475F4D53473A20466C617368205A
:10558000457261736520537461747573203A2025E8
:1055900064200A00424C5F44454255475F4D5347E3
:1055A0003A20626F6F746C6F616465725F6D656DD8
:1055B0005F77726974655F636D64200A00000000A4
:1055C000424C5F44454255475F4D53473A204D6535
:1055D0006D6F7279205772697465204164647265D9
:1055E00073733A20252378200A000000424C5F4460
:1055F000454255475F4D53473A2056616C696420D8
:105600004D656D6F727920577269746520416464CD
:1056100072657373200A0000424C5F44454255474F
:105620005F4D53473A20496E76616C6964204D6541
:105630006D6F727920577269746520416464726578
:105640007373200A00000000424C5F4445425547F6
:105650005F4D53473A20626F6F746C6F616465727F
:105660005F656E61626C655F726561645F777269C8
:1056700074655F70726F746563745F636D64200A34
:1056800000000000424C5F44454255475F4D534780
:105690003A205374617475733A2025640A0000003F
:1056A000424C5F44454255475F4D53473A20626F35
:1056B0006F746C6F616465725F726561645F73655E
:1056C00063746F725F70726F74656374696F6E5F1D
:1056D0007374617475735F636D64200A0000000069
:1056E000424C5F44454255475F4D53473A206E5701
:1056F0005250207374617475733A2025230A000098
:10570000424C5F44454255475F4D53473A20626FD4
:105710006F746C6F616465725F64697361626C65FC
:105720005F726561645F77726974655F70726F74D0
:105730006563745F636D64200A000000424C5F443F
:10574000454255475F4D53473A2053746174757312
:105750003A20256400000000424C20444542554751
:10576000204D53473A426F6F746C6F6164657220CD
:1057700061746C616D6120666F6E6B7369796F6EB9
:1057800075206361676972696C64690A00000000D2
:10579000424C204445425547204D53473A4D5350C3
:1057A00020446567657269202523780A000000009F
:1057B000424C204445425547204D53473A52657369
:1057C000657420446567657269202523780A0000A6
:1057D000424C204445425547204D53473A6F6C6434
:1057E00075202523780A0000424C20444542554745
:1057F000204D53473A204275746F6E6120426173A9
:10580000696C64692C426F6F746C6F616465722798
:105810006120476964696C69796F720A0000000051
:10582000424C204445425547204D53473A2042754B
:10583000746F6E6120426173696C6D616469210AE5
:1058400000000000486172644661756C740A0000D3
:105850003E0F0008480F0008520F00085C0F0008B8
:10586000660F0008700F00087A0F0008840F000808
:10587000F40E00088E0F0008F40E0008980F0008C0
:1058800000000000000000000102030406070809F0
:1058900000000000010203040203040506070809D2
:1058A0000A0B0C0D0E0F1010010203040506070869
:1058B000090A0B0C0D0E0F10232D302B2000686CE5
:1058C0004C00656667454647003031323334353623
:1058D000373839414243444546003031323334355C
:0C58E00036373839616263646566000089
:0458EC00E9000008C7
:0458F000C1000008EB
:1058F4005152535455565758595A5B5C00127A000A
:1059040004000000010000001C0000200000000052
:10591400D803002040040020A80400200000000058
:105924000000000000000000000000000000000073
:105934000000000000000000000000000000000063
:105944000000000000000000000000000000000053
:0859540000000000000000004B
:04000005080017FDDB
:00000001FF
